{
  "_format": "hh-sol-artifact-1",
  "contractName": "FounderSplitter",
  "sourceName": "contracts/FounderSplitter.sol",
  "abi": [
    {
      "inputs": [
        {
          "internalType": "address[]",
          "name": "payees",
          "type": "address[]"
        },
        {
          "internalType": "uint256[]",
          "name": "shares_",
          "type": "uint256[]"
        }
      ],
      "stateMutability": "nonpayable",
      "type": "constructor"
    },
    {
      "anonymous": false,
      "inputs": [
        {
          "indexed": true,
          "internalType": "contract IERC20",
          "name": "token",
          "type": "address"
        },
        {
          "indexed": false,
          "internalType": "address",
          "name": "to",
          "type": "address"
        },
        {
          "indexed": false,
          "internalType": "uint256",
          "name": "amount",
          "type": "uint256"
        }
      ],
      "name": "ERC20PaymentReleased",
      "type": "event"
    },
    {
      "anonymous": false,
      "inputs": [
        {
          "indexed": false,
          "internalType": "address",
          "name": "account",
          "type": "address"
        },
        {
          "indexed": false,
          "internalType": "uint256",
          "name": "shares",
          "type": "uint256"
        }
      ],
      "name": "PayeeAdded",
      "type": "event"
    },
    {
      "anonymous": false,
      "inputs": [
        {
          "indexed": false,
          "internalType": "address",
          "name": "from",
          "type": "address"
        },
        {
          "indexed": false,
          "internalType": "uint256",
          "name": "amount",
          "type": "uint256"
        }
      ],
      "name": "PaymentReceived",
      "type": "event"
    },
    {
      "anonymous": false,
      "inputs": [
        {
          "indexed": false,
          "internalType": "address",
          "name": "to",
          "type": "address"
        },
        {
          "indexed": false,
          "internalType": "uint256",
          "name": "amount",
          "type": "uint256"
        }
      ],
      "name": "PaymentReleased",
      "type": "event"
    },
    {
      "inputs": [
        {
          "internalType": "uint256",
          "name": "index",
          "type": "uint256"
        }
      ],
      "name": "payee",
      "outputs": [
        {
          "internalType": "address",
          "name": "",
          "type": "address"
        }
      ],
      "stateMutability": "view",
      "type": "function"
    },
    {
      "inputs": [
        {
          "internalType": "address",
          "name": "account",
          "type": "address"
        }
      ],
      "name": "releasable",
      "outputs": [
        {
          "internalType": "uint256",
          "name": "",
          "type": "uint256"
        }
      ],
      "stateMutability": "view",
      "type": "function"
    },
    {
      "inputs": [
        {
          "internalType": "contract IERC20",
          "name": "token",
          "type": "address"
        },
        {
          "internalType": "address",
          "name": "account",
          "type": "address"
        }
      ],
      "name": "releasable",
      "outputs": [
        {
          "internalType": "uint256",
          "name": "",
          "type": "uint256"
        }
      ],
      "stateMutability": "view",
      "type": "function"
    },
    {
      "inputs": [
        {
          "internalType": "address payable",
          "name": "account",
          "type": "address"
        }
      ],
      "name": "release",
      "outputs": [],
      "stateMutability": "nonpayable",
      "type": "function"
    },
    {
      "inputs": [
        {
          "internalType": "contract IERC20",
          "name": "token",
          "type": "address"
        },
        {
          "internalType": "address",
          "name": "account",
          "type": "address"
        }
      ],
      "name": "release",
      "outputs": [],
      "stateMutability": "nonpayable",
      "type": "function"
    },
    {
      "inputs": [
        {
          "internalType": "contract IERC20",
          "name": "token",
          "type": "address"
        },
        {
          "internalType": "address",
          "name": "account",
          "type": "address"
        }
      ],
      "name": "released",
      "outputs": [
        {
          "internalType": "uint256",
          "name": "",
          "type": "uint256"
        }
      ],
      "stateMutability": "view",
      "type": "function"
    },
    {
      "inputs": [
        {
          "internalType": "address",
          "name": "account",
          "type": "address"
        }
      ],
      "name": "released",
      "outputs": [
        {
          "internalType": "uint256",
          "name": "",
          "type": "uint256"
        }
      ],
      "stateMutability": "view",
      "type": "function"
    },
    {
      "inputs": [
        {
          "internalType": "address",
          "name": "account",
          "type": "address"
        }
      ],
      "name": "shares",
      "outputs": [
        {
          "internalType": "uint256",
          "name": "",
          "type": "uint256"
        }
      ],
      "stateMutability": "view",
      "type": "function"
    },
    {
      "inputs": [
        {
          "internalType": "contract IERC20",
          "name": "token",
          "type": "address"
        }
      ],
      "name": "totalReleased",
      "outputs": [
        {
          "internalType": "uint256",
          "name": "",
          "type": "uint256"
        }
      ],
      "stateMutability": "view",
      "type": "function"
    },
    {
      "inputs": [],
      "name": "totalReleased",
      "outputs": [
        {
          "internalType": "uint256",
          "name": "",
          "type": "uint256"
        }
      ],
      "stateMutability": "view",
      "type": "function"
    },
    {
      "inputs": [],
      "name": "totalShares",
      "outputs": [
        {
          "internalType": "uint256",
          "name": "",
          "type": "uint256"
        }
      ],
      "stateMutability": "view",
      "type": "function"
    },
    {
      "stateMutability": "payable",
      "type": "receive"
    }
  ],
  "bytecode": "0x60406080815234620003f65762000ed3803803806200001e816200041c565b9283398101918082840312620003f65781516001600160401b039390848111620003f65783019381601f86011215620003f65784519362000069620000638662000458565b6200041c565b9586958088526020808099019160051b83010191858311620003f6578801905b828210620003fb5750505085810151918211620003f657019080601f83011215620003f657815191620000c0620000638462000458565b92868085838152019160051b830101928311620003f65786809201905b838210620003e6575050505082518151036200038757825115620003435760005b835181101562000334576001600160a01b036200011c828662000470565b51166200012a828462000470565b518115620002db578015620002975781600052600280885285600020546200023f576004908154680100000000000000008110156200022a576001810180845581101562000215578260005289600020018460018060a01b0319825416179055836000528852818660002055600054908282018092116200020057506000558451918252868201527f40c340f65e17194d14ddddb073d3c9f888e3cb52b5aae0c6c7706b4fbc905fac908490a16000198114620001ea57600101620000fe565b634e487b7160e01b600052601160045260246000fd5b601190634e487b7160e01b6000525260246000fd5b603283634e487b7160e01b6000525260246000fd5b604183634e487b7160e01b6000525260246000fd5b855162461bcd60e51b815260048101899052602b60248201527f5061796d656e7453706c69747465723a206163636f756e7420616c726561647960448201526a206861732073686172657360a81b6064820152608490fd5b845162461bcd60e51b815260048101889052601d60248201527f5061796d656e7453706c69747465723a207368617265732061726520300000006044820152606490fd5b845162461bcd60e51b815260048101889052602c60248201527f5061796d656e7453706c69747465723a206163636f756e74206973207468652060448201526b7a65726f206164647265737360a01b6064820152608490fd5b8251610a3790816200049c8239f35b815162461bcd60e51b815260048101859052601a60248201527f5061796d656e7453706c69747465723a206e6f207061796565730000000000006044820152606490fd5b815162461bcd60e51b815260048101859052603260248201527f5061796d656e7453706c69747465723a2070617965657320616e6420736861726044820152710cae640d8cadccee8d040dad2e6dac2e8c6d60731b6064820152608490fd5b81518152908201908201620000dd565b600080fd5b81516001600160a01b0381168103620003f657815290880190880162000089565b6040519190601f01601f191682016001600160401b038111838210176200044257604052565b634e487b7160e01b600052604160045260246000fd5b6001600160401b038111620004425760051b60200190565b8051821015620004855760209160051b010190565b634e487b7160e01b600052603260045260246000fdfe60406080815260048036101561004e575b50361561001c57600080fd5b513381523460208201527f6ef95f06320e7a25a04a175ca677b7052bdd97131872c2192525a629f51be77090604090a1005b600090813560e01c90816319165587146104cc5781633a98ef39146104af578163406072a91461046657816348b75044146102625781638b83209b146101f5575080639852595c146101bd578063a3f8eace14610197578063c45ac05014610162578063ce7c2ac21461012a578063d79779b2146100f25763e33b7de3036100105790346100ee57816003193601126100ee576020906001549051908152f35b5080fd5b5090346100ee5760203660031901126100ee5760209181906001600160a01b0361011a610640565b1681526005845220549051908152f35b5090346100ee5760203660031901126100ee5760209181906001600160a01b03610152610640565b1681526002845220549051908152f35b5090346100ee57806003193601126100ee57602090610190610182610640565b61018a61065b565b906106ff565b9051908152f35b5090346100ee5760203660031901126100ee576020906101906101b8610640565b610694565b5090346100ee5760203660031901126100ee5760209181906001600160a01b036101e5610640565b1681526003845220549051908152f35b83833461025f57602036600319011261025f57823590835482101561024c57926020935260018060a01b03907f8a35acfbc15ff81a39ae7d344fd709f28e8600b4aa8c65c6b64bfe7fe36bd19b0154169051908152f35b634e487b7160e01b815260328452602490fd5b80fd5b9050346100ee57826003193601126100ee5761027c610640565b61028461065b565b60018060a01b039283821693848652602090600282526102a88888205415156107b4565b6102b284866106ff565b946102be86151561080f565b1694858752600582528787206102d5868254610671565b9055858752600682528787209087528152868620805485019055865163a9059cbb60e01b8183019081526001600160a01b0385166024830152604480830187905282526103236064836106c7565b88519189830183811067ffffffffffffffff821117610453578a528383527f5361666545524332303a206c6f772d6c6576656c2063616c6c206661696c65648484015251610383929189918291828b5af161037c6108ed565b908861092d565b805182811591821561042f575b50509050156103da57505093516001600160a01b039094168452602084015290917f3be5b7a71e84ed12875d241991c70855ac5817d847039e17a9d895c1ceb0f18a90604090a280f35b865162461bcd60e51b815291820152602a60248201527f5361666545524332303a204552433230206f7065726174696f6e20646964206e6044820152691bdd081cdd58d8d9595960b21b606482015260849150fd5b838092935001031261044f57810151801515810361044f57808238610390565b8680fd5b634e487b7160e01b8a526041865260248afd5b8284346100ee57806003193601126100ee5780602092610484610640565b61048c61065b565b6001600160a01b0391821683526006865283832091168252845220549051908152f35b8284346100ee57816003193601126100ee57602091549051908152f35b8284346100ee576020928360031936011261063c5780356001600160a01b0381169190829003610638578184526002855261050b8385205415156107b4565b61051482610694565b9061052082151561080f565b61052c82600154610671565b600155828552600386528385208281540190558147106105f5578480808085875af16105566108ed565b501561058c57507fdf20fd1e76bc69d672e4814fafb2c449bba3a5369d8359adf9e05e6fde87b05693948351928352820152a180f35b835162461bcd60e51b8152908101869052603a60248201527f416464726573733a20756e61626c6520746f2073656e642076616c75652c207260448201527f6563697069656e74206d617920686176652072657665727465640000000000006064820152608490fd5b835162461bcd60e51b8152908101869052601d60248201527f416464726573733a20696e73756666696369656e742062616c616e63650000006044820152606490fd5b8380fd5b8280fd5b600435906001600160a01b038216820361065657565b600080fd5b602435906001600160a01b038216820361065657565b9190820180921161067e57565b634e487b7160e01b600052601160045260246000fd5b6106c4906106a54760015490610671565b6001600160a01b0382166000908152600360205260409020549161086f565b90565b90601f8019910116810190811067ffffffffffffffff8211176106e957604052565b634e487b7160e01b600052604160045260246000fd5b6040516370a0823160e01b81523060048201529291906001600160a01b039081169060208086602481865afa9586156107a857600096610777575b506107576106c49596846000526005835260406000205490610671565b92600052600681526040600020918416600052526040600020549161086f565b958187813d83116107a1575b61078d81836106c7565b8101031261025f575094519461075761073a565b503d610783565b6040513d6000823e3d90fd5b156107bb57565b60405162461bcd60e51b815260206004820152602660248201527f5061796d656e7453706c69747465723a206163636f756e7420686173206e6f2060448201526573686172657360d01b6064820152608490fd5b1561081657565b60405162461bcd60e51b815260206004820152602b60248201527f5061796d656e7453706c69747465723a206163636f756e74206973206e6f742060448201526a191d59481c185e5b595b9d60aa1b6064820152608490fd5b6001600160a01b031660009081526002602052604081205490918181029181159183041417156108d95781549081156108c557049182039182116108b1575090565b634e487b7160e01b81526011600452602490fd5b634e487b7160e01b83526012600452602483fd5b634e487b7160e01b82526011600452602482fd5b3d15610928573d9067ffffffffffffffff82116106e9576040519161091c601f8201601f1916602001846106c7565b82523d6000602084013e565b606090565b9192901561098f5750815115610941575090565b3b1561094a5790565b60405162461bcd60e51b815260206004820152601d60248201527f416464726573733a2063616c6c20746f206e6f6e2d636f6e74726163740000006044820152606490fd5b8251909150156109a25750805190602001fd5b6040519062461bcd60e51b82528160208060048301528251908160248401526000935b8285106109e8575050604492506000838284010152601f80199101168101030190fd5b84810182015186860160440152938101938593506109c556fea264697066735822122087998bb4312254b010013bdfac73a252cb6e38705ac7ef9444308ae94abb7dc664736f6c63430008140033",
  "linkReferences": {},
  "deployedLinkReferences": {}
}