{
  "_format": "hh-sol-artifact-1",
  "contractName": "CompanyRegistry",
  "sourceName": "contracts/CompanyRegistry.sol",
  "abi": [
    {
      "inputs": [
        {
          "internalType": "address",
          "name": "_token",
          "type": "address"
        }
      ],
      "stateMutability": "nonpayable",
      "type": "constructor"
    },
    {
      "anonymous": false,
      "inputs": [
        {
          "indexed": true,
          "internalType": "address",
          "name": "wallet",
          "type": "address"
        }
      ],
      "name": "CompanyApproved",
      "type": "event"
    },
    {
      "anonymous": false,
      "inputs": [
        {
          "indexed": true,
          "internalType": "address",
          "name": "wallet",
          "type": "address"
        },
        {
          "indexed": false,
          "internalType": "string",
          "name": "name",
          "type": "string"
        }
      ],
      "name": "CompanyRequested",
      "type": "event"
    },
    {
      "anonymous": false,
      "inputs": [
        {
          "indexed": true,
          "internalType": "address",
          "name": "wallet",
          "type": "address"
        }
      ],
      "name": "CompanyRevoked",
      "type": "event"
    },
    {
      "anonymous": false,
      "inputs": [
        {
          "indexed": true,
          "internalType": "address",
          "name": "previousOwner",
          "type": "address"
        },
        {
          "indexed": true,
          "internalType": "address",
          "name": "newOwner",
          "type": "address"
        }
      ],
      "name": "OwnershipTransferred",
      "type": "event"
    },
    {
      "anonymous": false,
      "inputs": [
        {
          "indexed": false,
          "internalType": "uint256",
          "name": "newAmount",
          "type": "uint256"
        }
      ],
      "name": "StakeRequirementUpdated",
      "type": "event"
    },
    {
      "inputs": [
        {
          "internalType": "address",
          "name": "_company",
          "type": "address"
        }
      ],
      "name": "approveCompany",
      "outputs": [],
      "stateMutability": "nonpayable",
      "type": "function"
    },
    {
      "inputs": [
        {
          "internalType": "address",
          "name": "",
          "type": "address"
        }
      ],
      "name": "companies",
      "outputs": [
        {
          "internalType": "string",
          "name": "name",
          "type": "string"
        },
        {
          "internalType": "string",
          "name": "metadataURI",
          "type": "string"
        },
        {
          "internalType": "uint256",
          "name": "registeredAt",
          "type": "uint256"
        },
        {
          "internalType": "bool",
          "name": "isVerified",
          "type": "bool"
        },
        {
          "internalType": "bool",
          "name": "isPending",
          "type": "bool"
        }
      ],
      "stateMutability": "view",
      "type": "function"
    },
    {
      "inputs": [
        {
          "internalType": "uint256",
          "name": "",
          "type": "uint256"
        }
      ],
      "name": "companyList",
      "outputs": [
        {
          "internalType": "address",
          "name": "",
          "type": "address"
        }
      ],
      "stateMutability": "view",
      "type": "function"
    },
    {
      "inputs": [],
      "name": "getAllCompanies",
      "outputs": [
        {
          "internalType": "address[]",
          "name": "",
          "type": "address[]"
        }
      ],
      "stateMutability": "view",
      "type": "function"
    },
    {
      "inputs": [
        {
          "internalType": "address",
          "name": "_company",
          "type": "address"
        }
      ],
      "name": "getCompany",
      "outputs": [
        {
          "components": [
            {
              "internalType": "string",
              "name": "name",
              "type": "string"
            },
            {
              "internalType": "string",
              "name": "metadataURI",
              "type": "string"
            },
            {
              "internalType": "uint256",
              "name": "registeredAt",
              "type": "uint256"
            },
            {
              "internalType": "bool",
              "name": "isVerified",
              "type": "bool"
            },
            {
              "internalType": "bool",
              "name": "isPending",
              "type": "bool"
            }
          ],
          "internalType": "struct CompanyRegistry.Company",
          "name": "",
          "type": "tuple"
        }
      ],
      "stateMutability": "view",
      "type": "function"
    },
    {
      "inputs": [],
      "name": "getVerifiedCompanies",
      "outputs": [
        {
          "internalType": "address[]",
          "name": "",
          "type": "address[]"
        }
      ],
      "stateMutability": "view",
      "type": "function"
    },
    {
      "inputs": [
        {
          "internalType": "address",
          "name": "_company",
          "type": "address"
        }
      ],
      "name": "isVerified",
      "outputs": [
        {
          "internalType": "bool",
          "name": "",
          "type": "bool"
        }
      ],
      "stateMutability": "view",
      "type": "function"
    },
    {
      "inputs": [],
      "name": "minStakeRequirement",
      "outputs": [
        {
          "internalType": "uint256",
          "name": "",
          "type": "uint256"
        }
      ],
      "stateMutability": "view",
      "type": "function"
    },
    {
      "inputs": [],
      "name": "owner",
      "outputs": [
        {
          "internalType": "address",
          "name": "",
          "type": "address"
        }
      ],
      "stateMutability": "view",
      "type": "function"
    },
    {
      "inputs": [],
      "name": "renounceOwnership",
      "outputs": [],
      "stateMutability": "nonpayable",
      "type": "function"
    },
    {
      "inputs": [
        {
          "internalType": "string",
          "name": "_name",
          "type": "string"
        },
        {
          "internalType": "string",
          "name": "_metadataURI",
          "type": "string"
        }
      ],
      "name": "requestRegistration",
      "outputs": [],
      "stateMutability": "nonpayable",
      "type": "function"
    },
    {
      "inputs": [
        {
          "internalType": "address",
          "name": "_company",
          "type": "address"
        }
      ],
      "name": "revokeCompany",
      "outputs": [],
      "stateMutability": "nonpayable",
      "type": "function"
    },
    {
      "inputs": [
        {
          "internalType": "uint256",
          "name": "_amount",
          "type": "uint256"
        }
      ],
      "name": "setStakeRequirement",
      "outputs": [],
      "stateMutability": "nonpayable",
      "type": "function"
    },
    {
      "inputs": [],
      "name": "token",
      "outputs": [
        {
          "internalType": "contract IERC20",
          "name": "",
          "type": "address"
        }
      ],
      "stateMutability": "view",
      "type": "function"
    },
    {
      "inputs": [
        {
          "internalType": "address",
          "name": "newOwner",
          "type": "address"
        }
      ],
      "name": "transferOwnership",
      "outputs": [],
      "stateMutability": "nonpayable",
      "type": "function"
    }
  ],
  "bytecode": "0x6080346100b457601f61107138819003918201601f19168301916001600160401b038311848410176100b9578084926020946040528339810103126100b457516001600160a01b0390818116908190036100b45760005460018060a01b0319903382821617600055604051933391167f8be0079c531659141344cd1fd0a4f28419497f9722a3daafe3b4186f6b6457e0600080a3600154161760015568410d586a20a4c00000600255610fa190816100d08239f35b600080fd5b634e487b7160e01b600052604160045260246000fdfe6080604052600436101561001257600080fd5b60003560e01c8063355e6ce814610c095780633cf079f014610b35578063408bf4c314610aa55780634f09e30414610a595780635b65a55c1461090a5780635d62b19a1461045457806362bc56e614610350578063715018a6146102f75780637e3b89da146102895780638da5cb5b14610260578063afe525d914610242578063b9209e33146101fc578063d0366e55146101ba578063f2fde38b146100ef5763fc0c546a146100c157600080fd5b346100ea5760003660031901126100ea576001546040516001600160a01b039091168152602090f35b600080fd5b346100ea5760203660031901126100ea576004356001600160a01b03818116918290036100ea5761011e610ed6565b811561016657600054826bffffffffffffffffffffffff60a01b821617600055167f8be0079c531659141344cd1fd0a4f28419497f9722a3daafe3b4186f6b6457e0600080a3005b60405162461bcd60e51b815260206004820152602660248201527f4f776e61626c653a206e6577206f776e657220697320746865207a65726f206160448201526564647265737360d01b6064820152608490fd5b346100ea5760203660031901126100ea576004356004548110156100ea576101e3602091610e9f565b905460405160039290921b1c6001600160a01b03168152f35b346100ea5760203660031901126100ea576004356001600160a01b038116908190036100ea576000526003602052602060ff600360406000200154166040519015158152f35b346100ea5760003660031901126100ea576020600254604051908152f35b346100ea5760003660031901126100ea576000546040516001600160a01b039091168152602090f35b346100ea5760203660031901126100ea576004356001600160a01b038116908190036100ea576102b7610ed6565b806000526003602052600360406000200160ff1981541690557f46e8dce13f141606963713b37f74015ccf9b66b55f41442de76d60bd8932dbea600080a2005b346100ea5760003660031901126100ea57610310610ed6565b600080546001600160a01b0319811682556001600160a01b03167f8be0079c531659141344cd1fd0a4f28419497f9722a3daafe3b4186f6b6457e08280a3005b346100ea576020806003193601126100ea576004356001600160a01b03811691908290036100ea5760a0916000608060405161038b81610ce0565b606081526060858201528260408201528260608201520152600052600381526040600020604051916103bc83610ce0565b6103c582610d1e565b83526103d360018301610d1e565b90808401918252610439600360028501549460408701958652015492610426606087019360ff86161515855260ff608089019660081c1615158652604051988998828a52519189015260c0880190610dc4565b9051868203601f19016040880152610dc4565b92516060850152511515608084015251151560a08301520390f35b346100ea5760403660031901126100ea5760043567ffffffffffffffff81116100ea57610485903690600401610e48565b60243567ffffffffffffffff81116100ea576104a5903690600401610e48565b6001546040516370a0823160e01b81523360048201529192916001600160a01b03916020908290602490829086165afa9081156108fe576000916108cc575b506002541161088e5733600052600360205260ff600360406000200154166108565733600052600360205260ff60036040600020015460081c1615610819575b506040519161053283610ce0565b81835260208301524260408301526000606083015260016080830152336000526003602052604060002090825192835167ffffffffffffffff811161074b5761057b8454610ca6565b601f81116107d5575b506020601f821160011461076c578192939495600092610761575b50508160011b916000199060031b1c19161783555b602081015192835167ffffffffffffffff811161074b576105d86001830154610ca6565b601f8111610700575b506020601f821160011461068e5781906003949596600092610683575b505060001982851b1c1916600191821b17908201555b604083015160028201550190606081015115159060ff61ff0060808554930151151560081b1692169061ffff1916171790557f9878f0ba234bbfa4cb5e6131cff52f7997601826211a3cba4b98d8bfedec8de2604051602081528061067e33946020830190610dc4565b0390a2005b0151905086806105fe565b6001830160005260206000209560005b601f19841681106106e857509582916003959697600194601f198116106106d0575b505050811b016001820155610614565b015160001983871b60f8161c191690558680806106c0565b8282015188556001909701966020928301920161069e565b600183016000526020600020601f830160051c81019160208410610741575b601f0160051c01905b81811061073557506105e1565b60008155600101610728565b909150819061071f565b634e487b7160e01b600052604160045260246000fd5b01519050858061059f565b8460005260206000209060005b601f19841681106107bd575060019394959683601f198116106107a4575b505050811b0183556105b4565b015160001960f88460031b161c19169055858080610797565b9091602060018192858b015181550193019101610779565b846000526020600020601f830160051c810160208410610812575b601f830160051c82018110610806575050610584565b600081556001016107f0565b50806107f0565b6004546801000000000000000081101561074b5780600161083d9201600455610e9f565b819291549060031b9133831b921b191617905582610524565b60405162461bcd60e51b815260206004820152601060248201526f105b1c9958591e481d995c9a599a595960821b6044820152606490fd5b60405162461bcd60e51b8152602060048201526016602482015275496e73756666696369656e7420545253205374616b6560501b6044820152606490fd5b90506020813d6020116108f6575b816108e760209383610cfc565b810103126100ea5751846104e4565b3d91506108da565b6040513d6000823e3d90fd5b346100ea5760003660031901126100ea576004546000805b828110610a04575061093381610f53565b906109416040519283610cfc565b808252610950601f1991610f53565b019160209236848401376000805b82821061097757604051806109738682610e04565b0390f35b61098082610e9f565b60018060a01b03809254600392831b1c1660005280875260ff8160406000200154166109b9575b5050906109b390610f2e565b9061095e565b6109c284610e9f565b9054911b1c1684518210156109ee57816109e791876109b39460051b88010152610f2e565b90866109a7565b634e487b7160e01b600052603260045260246000fd5b60ff610a0f82610e9f565b9054600391821b1c6001600160a01b03166000908152602082905260409020015416610a44575b610a3f90610f2e565b610922565b90610a51610a3f91610f2e565b919050610a36565b346100ea5760203660031901126100ea577f36a3e68233fd0e64f4418125ed831a6affd2a0041b54c7adbee76119d20519ce6020600435610a98610ed6565b80600255604051908152a1005b346100ea5760003660031901126100ea57604051806004549182815260208091019260046000527f8a35acfbc15ff81a39ae7d344fd709f28e8600b4aa8c65c6b64bfe7fe36bd19b916000905b828210610b155761097385610b0981890382610cfc565b60405191829182610e04565b83546001600160a01b031686529485019460019384019390910190610af2565b346100ea5760203660031901126100ea576004356001600160a01b038116908190036100ea57610b63610ed6565b80600052600360205260ff60036040600020015460081c1615610bc4578060005260036020526003604060002001600161ffff198254161790557fc3c33e9ca5d237aee26bc3f09b89696d9f804722e549865a045f90be4d2fe8b0600080a2005b60405162461bcd60e51b815260206004820152601960248201527f436f6d70616e792072657175657374206e6f7420666f756e64000000000000006044820152606490fd5b346100ea5760203660031901126100ea576004356001600160a01b038116908190036100ea576000526003602052610c796040600020610c4881610d1e565b9060ff610c5760018301610d1e565b610c87600360028501549401549160405196879660a0885260a0880190610dc4565b908682036020880152610dc4565b9260408501528181161515606085015260081c16151560808301520390f35b90600182811c92168015610cd6575b6020831014610cc057565b634e487b7160e01b600052602260045260246000fd5b91607f1691610cb5565b60a0810190811067ffffffffffffffff82111761074b57604052565b90601f8019910116810190811067ffffffffffffffff82111761074b57604052565b9060405191826000825492610d3284610ca6565b908184526001948581169081600014610da15750600114610d5e575b5050610d5c92500383610cfc565b565b9093915060005260209081600020936000915b818310610d89575050610d5c93508201013880610d4e565b85548884018501529485019487945091830191610d71565b915050610d5c94506020925060ff191682840152151560051b8201013880610d4e565b919082519283825260005b848110610df0575050826000602080949584010152601f8019910116010190565b602081830181015184830182015201610dcf565b6020908160408183019282815285518094520193019160005b828110610e2b575050505090565b83516001600160a01b031685529381019392810192600101610e1d565b81601f820112156100ea5780359067ffffffffffffffff821161074b5760405192610e7d601f8401601f191660200185610cfc565b828452602083830101116100ea57816000926020809301838601378301015290565b6004548110156109ee5760046000527f8a35acfbc15ff81a39ae7d344fd709f28e8600b4aa8c65c6b64bfe7fe36bd19b0190600090565b6000546001600160a01b03163303610eea57565b606460405162461bcd60e51b815260206004820152602060248201527f4f776e61626c653a2063616c6c6572206973206e6f7420746865206f776e65726044820152fd5b6000198114610f3d5760010190565b634e487b7160e01b600052601160045260246000fd5b67ffffffffffffffff811161074b5760051b6020019056fea2646970667358221220c5052470197c99744be5192f6ced23fe1a8e31d5c493551c1747074f7f0428bd64736f6c63430008140033",
  "linkReferences": {},
  "deployedLinkReferences": {}
}