{
  "_format": "hh-sol-artifact-1",
  "contractName": "KYCRegistry",
  "sourceName": "contracts/KYCRegistry.sol",
  "abi": [
    {
      "inputs": [
        {
          "internalType": "address",
          "name": "initialOwner",
          "type": "address"
        }
      ],
      "stateMutability": "nonpayable",
      "type": "constructor"
    },
    {
      "anonymous": false,
      "inputs": [
        {
          "indexed": true,
          "internalType": "address",
          "name": "user",
          "type": "address"
        },
        {
          "indexed": false,
          "internalType": "bool",
          "name": "status",
          "type": "bool"
        }
      ],
      "name": "KYCStatusChanged",
      "type": "event"
    },
    {
      "anonymous": false,
      "inputs": [
        {
          "indexed": true,
          "internalType": "address",
          "name": "previousOwner",
          "type": "address"
        },
        {
          "indexed": true,
          "internalType": "address",
          "name": "newOwner",
          "type": "address"
        }
      ],
      "name": "OwnershipTransferred",
      "type": "event"
    },
    {
      "inputs": [
        {
          "internalType": "address",
          "name": "",
          "type": "address"
        }
      ],
      "name": "isKyced",
      "outputs": [
        {
          "internalType": "bool",
          "name": "",
          "type": "bool"
        }
      ],
      "stateMutability": "view",
      "type": "function"
    },
    {
      "inputs": [],
      "name": "owner",
      "outputs": [
        {
          "internalType": "address",
          "name": "",
          "type": "address"
        }
      ],
      "stateMutability": "view",
      "type": "function"
    },
    {
      "inputs": [],
      "name": "renounceOwnership",
      "outputs": [],
      "stateMutability": "nonpayable",
      "type": "function"
    },
    {
      "inputs": [
        {
          "internalType": "address",
          "name": "user",
          "type": "address"
        },
        {
          "internalType": "bool",
          "name": "status",
          "type": "bool"
        }
      ],
      "name": "setKYCStatus",
      "outputs": [],
      "stateMutability": "nonpayable",
      "type": "function"
    },
    {
      "inputs": [
        {
          "internalType": "address[]",
          "name": "users",
          "type": "address[]"
        },
        {
          "internalType": "bool",
          "name": "status",
          "type": "bool"
        }
      ],
      "name": "setKYCStatusBatch",
      "outputs": [],
      "stateMutability": "nonpayable",
      "type": "function"
    },
    {
      "inputs": [
        {
          "internalType": "address",
          "name": "newOwner",
          "type": "address"
        }
      ],
      "name": "transferOwnership",
      "outputs": [],
      "stateMutability": "nonpayable",
      "type": "function"
    }
  ],
  "bytecode": "0x60803461011b57601f6105ec38819003918201601f19168301916001600160401b038311848410176101205780849260209460405283398101031261011b57516001600160a01b038082169081830361011b5761005b33610136565b339060005416036100d757156100835761007490610136565b60405161046e908161017e8239f35b60405162461bcd60e51b815260206004820152602660248201527f4f776e61626c653a206e6577206f776e657220697320746865207a65726f206160448201526564647265737360d01b6064820152608490fd5b606460405162461bcd60e51b815260206004820152602060248201527f4f776e61626c653a2063616c6c6572206973206e6f7420746865206f776e65726044820152fd5b600080fd5b634e487b7160e01b600052604160045260246000fd5b600080546001600160a01b039283166001600160a01b03198216811783559216907f8be0079c531659141344cd1fd0a4f28419497f9722a3daafe3b4186f6b6457e09080a356fe6080604081815260048036101561001557600080fd5b600092833560e01c90816351b799511461034157508063715018a6146102e45780638da5cb5b146102bc5780639c846af2146101a9578063a3f569ae1461012a5763f2fde38b1461006557600080fd5b346101265760203660031901126101265761007e61037c565b906100876103a6565b6001600160a01b039182169283156100d457505082546001600160a01b0319811683178455167f8be0079c531659141344cd1fd0a4f28419497f9722a3daafe3b4186f6b6457e08380a380f35b906020608492519162461bcd60e51b8352820152602660248201527f4f776e61626c653a206e6577206f776e657220697320746865207a65726f206160448201526564647265737360d01b6064820152fd5b8280fd5b5050346101a557806003193601126101a5577f3a620c3544f4661f38b303e51ff3c4cc552da5a80ec55d4e3875af78775e1a82602061016761037c565b61016f610397565b906101786103a6565b6001600160a01b031680865260018352848620805460ff191660ff8415151617905593519015158152a280f35b5080fd5b50903461012657806003193601126101265781359167ffffffffffffffff918284116102b857366023850112156102b857838201359283116102b857602493848101908536918660051b0101116102b45792610203610397565b61020b6103a6565b80151591875b81811061021c578880f35b887f3a620c3544f4661f38b303e51ff3c4cc552da5a80ec55d4e3875af78775e1a826001600160a01b038061025a61025586888e6103fe565b610424565b16835261027b868960209560018752209060ff801983541691151516179055565b61028961025585878d6103fe565b16918751878152a260001981146102a257600101610211565b634e487b7160e01b8952601186528789fd5b8580fd5b8480fd5b5050346101a557816003193601126101a557905490516001600160a01b039091168152602090f35b833461033e578060031936011261033e576102fd6103a6565b80546001600160a01b03198116825581906001600160a01b03167f8be0079c531659141344cd1fd0a4f28419497f9722a3daafe3b4186f6b6457e08280a380f35b80fd5b849084346101265760203660031901126101265760209260ff91906001600160a01b0361036c61037c565b1681526001855220541615158152f35b600435906001600160a01b038216820361039257565b600080fd5b60243590811515820361039257565b6000546001600160a01b031633036103ba57565b606460405162461bcd60e51b815260206004820152602060248201527f4f776e61626c653a2063616c6c6572206973206e6f7420746865206f776e65726044820152fd5b919081101561040e5760051b0190565b634e487b7160e01b600052603260045260246000fd5b356001600160a01b0381168103610392579056fea26469706673582212208464cb7cf12971f2b3ffd65967c1b18a4e77290d8754351ceff0500e5b56175764736f6c63430008140033",
  "linkReferences": {},
  "deployedLinkReferences": {}
}