{
  "_format": "hh-sol-artifact-1",
  "contractName": "ExecutionRegistry",
  "sourceName": "contracts/ExecutionRegistry.sol",
  "abi": [
    {
      "inputs": [],
      "stateMutability": "nonpayable",
      "type": "constructor"
    },
    {
      "anonymous": false,
      "inputs": [
        {
          "indexed": true,
          "internalType": "address",
          "name": "previousOwner",
          "type": "address"
        },
        {
          "indexed": true,
          "internalType": "address",
          "name": "newOwner",
          "type": "address"
        }
      ],
      "name": "OwnershipTransferred",
      "type": "event"
    },
    {
      "anonymous": false,
      "inputs": [
        {
          "indexed": true,
          "internalType": "address",
          "name": "account",
          "type": "address"
        },
        {
          "indexed": false,
          "internalType": "bool",
          "name": "status",
          "type": "bool"
        }
      ],
      "name": "VerificationStatusChanged",
      "type": "event"
    },
    {
      "inputs": [
        {
          "internalType": "address",
          "name": "",
          "type": "address"
        }
      ],
      "name": "isVerified",
      "outputs": [
        {
          "internalType": "bool",
          "name": "",
          "type": "bool"
        }
      ],
      "stateMutability": "view",
      "type": "function"
    },
    {
      "inputs": [],
      "name": "owner",
      "outputs": [
        {
          "internalType": "address",
          "name": "",
          "type": "address"
        }
      ],
      "stateMutability": "view",
      "type": "function"
    },
    {
      "inputs": [],
      "name": "renounceOwnership",
      "outputs": [],
      "stateMutability": "nonpayable",
      "type": "function"
    },
    {
      "inputs": [
        {
          "internalType": "address",
          "name": "account",
          "type": "address"
        },
        {
          "internalType": "bool",
          "name": "status",
          "type": "bool"
        }
      ],
      "name": "setVerified",
      "outputs": [],
      "stateMutability": "nonpayable",
      "type": "function"
    },
    {
      "inputs": [
        {
          "internalType": "address",
          "name": "newOwner",
          "type": "address"
        }
      ],
      "name": "transferOwnership",
      "outputs": [],
      "stateMutability": "nonpayable",
      "type": "function"
    },
    {
      "inputs": [
        {
          "internalType": "address",
          "name": "",
          "type": "address"
        }
      ],
      "name": "verifiedAt",
      "outputs": [
        {
          "internalType": "uint256",
          "name": "",
          "type": "uint256"
        }
      ],
      "stateMutability": "view",
      "type": "function"
    }
  ],
  "bytecode": "0x6080806040523461005b5760008054336001600160a01b0319821681178355916001600160a01b03909116907f8be0079c531659141344cd1fd0a4f28419497f9722a3daafe3b4186f6b6457e09080a361035a90816100618239f35b600080fdfe604060808152600436101561001357600080fd5b600090813560e01c8063715018a6146102545780638da5cb5b1461022d5780639cf5c61314610198578063b9209e331461015b578063dd612c2e146101245763f2fde38b1461006157600080fd5b346101205760203660031901126101205761007a6102b1565b6100826102cc565b6001600160a01b039081169182156100ce575082546001600160a01b0319811683178455167f8be0079c531659141344cd1fd0a4f28419497f9722a3daafe3b4186f6b6457e08380a380f35b5162461bcd60e51b815260206004820152602660248201527f4f776e61626c653a206e6577206f776e657220697320746865207a65726f206160448201526564647265737360d01b6064820152608490fd5b5080fd5b50346101205760203660031901126101205760209181906001600160a01b0361014b6102b1565b1681526002845220549051908152f35b50346101205760203660031901126101205760209160ff9082906001600160a01b036101856102b1565b1681526001855220541690519015158152f35b50346101205780600319360112610120576101b16102b1565b9060243591821515808403610229577f64b26872c9222e9e59401395a4fab5dd5c080d08ca78b86fc5b518453614b315926020926101ed6102cc565b6001600160a01b031680875260018452818720805460ff191660ff85161790559461021b575b51908152a280f35b600283524281872055610213565b8480fd5b5034610120578160031936011261012057905490516001600160a01b039091168152602090f35b82346102ae57806003193601126102ae5761026d6102cc565b80546001600160a01b03198116825581906001600160a01b03167f8be0079c531659141344cd1fd0a4f28419497f9722a3daafe3b4186f6b6457e08280a380f35b80fd5b600435906001600160a01b03821682036102c757565b600080fd5b6000546001600160a01b031633036102e057565b606460405162461bcd60e51b815260206004820152602060248201527f4f776e61626c653a2063616c6c6572206973206e6f7420746865206f776e65726044820152fdfea2646970667358221220edf9778deffb90aa26bf5f9b9e8a891f56afacf95ec991d78fdfeac828e0e7b864736f6c63430008140033",
  "linkReferences": {},
  "deployedLinkReferences": {}
}