{
  "_format": "hh-sol-artifact-1",
  "contractName": "DividendVault",
  "sourceName": "contracts/DividendVault.sol",
  "abi": [
    {
      "inputs": [
        {
          "internalType": "address",
          "name": "_token",
          "type": "address"
        }
      ],
      "stateMutability": "nonpayable",
      "type": "constructor"
    },
    {
      "anonymous": false,
      "inputs": [
        {
          "indexed": true,
          "internalType": "address",
          "name": "user",
          "type": "address"
        },
        {
          "indexed": true,
          "internalType": "uint256",
          "name": "distributionId",
          "type": "uint256"
        },
        {
          "indexed": false,
          "internalType": "uint256",
          "name": "amount",
          "type": "uint256"
        }
      ],
      "name": "Claimed",
      "type": "event"
    },
    {
      "anonymous": false,
      "inputs": [
        {
          "indexed": true,
          "internalType": "address",
          "name": "sender",
          "type": "address"
        },
        {
          "indexed": false,
          "internalType": "uint256",
          "name": "amount",
          "type": "uint256"
        }
      ],
      "name": "Deposited",
      "type": "event"
    },
    {
      "anonymous": false,
      "inputs": [
        {
          "indexed": true,
          "internalType": "uint256",
          "name": "distributionId",
          "type": "uint256"
        },
        {
          "indexed": false,
          "internalType": "uint256",
          "name": "snapshotId",
          "type": "uint256"
        },
        {
          "indexed": false,
          "internalType": "uint256",
          "name": "amount",
          "type": "uint256"
        }
      ],
      "name": "Distributed",
      "type": "event"
    },
    {
      "anonymous": false,
      "inputs": [
        {
          "indexed": true,
          "internalType": "address",
          "name": "previousOwner",
          "type": "address"
        },
        {
          "indexed": true,
          "internalType": "address",
          "name": "newOwner",
          "type": "address"
        }
      ],
      "name": "OwnershipTransferred",
      "type": "event"
    },
    {
      "inputs": [
        {
          "internalType": "uint256",
          "name": "distributionId",
          "type": "uint256"
        }
      ],
      "name": "claim",
      "outputs": [],
      "stateMutability": "nonpayable",
      "type": "function"
    },
    {
      "inputs": [
        {
          "internalType": "uint256",
          "name": "snapshotId",
          "type": "uint256"
        }
      ],
      "name": "distribute",
      "outputs": [],
      "stateMutability": "nonpayable",
      "type": "function"
    },
    {
      "inputs": [
        {
          "internalType": "uint256",
          "name": "",
          "type": "uint256"
        }
      ],
      "name": "distributions",
      "outputs": [
        {
          "internalType": "uint256",
          "name": "snapshotId",
          "type": "uint256"
        },
        {
          "internalType": "uint256",
          "name": "totalAmount",
          "type": "uint256"
        },
        {
          "internalType": "uint256",
          "name": "totalSupplyAtSnapshot",
          "type": "uint256"
        }
      ],
      "stateMutability": "view",
      "type": "function"
    },
    {
      "inputs": [],
      "name": "getDistributionCount",
      "outputs": [
        {
          "internalType": "uint256",
          "name": "",
          "type": "uint256"
        }
      ],
      "stateMutability": "view",
      "type": "function"
    },
    {
      "inputs": [
        {
          "internalType": "uint256",
          "name": "",
          "type": "uint256"
        },
        {
          "internalType": "address",
          "name": "",
          "type": "address"
        }
      ],
      "name": "hasClaimed",
      "outputs": [
        {
          "internalType": "bool",
          "name": "",
          "type": "bool"
        }
      ],
      "stateMutability": "view",
      "type": "function"
    },
    {
      "inputs": [],
      "name": "owner",
      "outputs": [
        {
          "internalType": "address",
          "name": "",
          "type": "address"
        }
      ],
      "stateMutability": "view",
      "type": "function"
    },
    {
      "inputs": [],
      "name": "renounceOwnership",
      "outputs": [],
      "stateMutability": "nonpayable",
      "type": "function"
    },
    {
      "inputs": [],
      "name": "token",
      "outputs": [
        {
          "internalType": "contract TRSToken",
          "name": "",
          "type": "address"
        }
      ],
      "stateMutability": "view",
      "type": "function"
    },
    {
      "inputs": [],
      "name": "totalDividendsClaimed",
      "outputs": [
        {
          "internalType": "uint256",
          "name": "",
          "type": "uint256"
        }
      ],
      "stateMutability": "view",
      "type": "function"
    },
    {
      "inputs": [],
      "name": "totalDividendsDistributed",
      "outputs": [
        {
          "internalType": "uint256",
          "name": "",
          "type": "uint256"
        }
      ],
      "stateMutability": "view",
      "type": "function"
    },
    {
      "inputs": [
        {
          "internalType": "address",
          "name": "newOwner",
          "type": "address"
        }
      ],
      "name": "transferOwnership",
      "outputs": [],
      "stateMutability": "nonpayable",
      "type": "function"
    },
    {
      "stateMutability": "payable",
      "type": "receive"
    }
  ],
  "bytecode": "0x6080346100ab57601f610b9838819003918201601f19168301916001600160401b038311848410176100b0578084926020946040528339810103126100ab57516001600160a01b0390818116908190036100ab5760005460018060a01b0319903382821617600055604051933391167f8be0079c531659141344cd1fd0a4f28419497f9722a3daafe3b4186f6b6457e0600080a3600180556002541617600255610ad190816100c78239f35b600080fd5b634e487b7160e01b600052604160045260246000fdfe60806040908082526004908136101561004c575b5050361561002057600080fd5b513481527f2da466a7b24304f47e87fa2e1e5a81b9831ce54fec19055ce277ca2f39ba42c460203392a2005b600091823560e01c918263379607f5146105695750816342c916051461054a5781634487d3df14610500578163715018a6146104a357816385a6b3ae14610484578163873f6f9e146104355781638da5cb5b1461040d57816391c05b0b146101ef5781639f13464e146101d0578163f2fde38b14610101575063fc0c546a146100d55780610013565b90346100fd57816003193601126100fd5760025490516001600160a01b039091168152602090f35b5080fd5b905082346101cc5760203660031901126101cc576001600160a01b038235818116939192908490036101c8576101356109bf565b831561017657505082546001600160a01b0319811683178455167f8be0079c531659141344cd1fd0a4f28419497f9722a3daafe3b4186f6b6457e08380a380f35b906020608492519162461bcd60e51b8352820152602660248201527f4f776e61626c653a206e6577206f776e657220697320746865207a65726f206160448201526564647265737360d01b6064820152fd5b8480fd5b8280fd5b8284346100fd57816003193601126100fd576020906006549051908152f35b8284346100fd57602090816003193601126101cc57833561020e6109bf565b6102274761022160055460065490610a17565b90610a17565b80156103ca576002548351630981b24d60e41b8152878101849052908590829060249082906001600160a01b03165afa9081156103c057869161038f575b50801561034c5783519061027882610a3a565b83825285820183815285830191825260035468010000000000000000811015610339578060016102ab920160035561096f565b939093610327579060029291518455516001840155519101556102d081600554610a8e565b600555600354600019810194908511610314577fc5d35a65af09b3042394b742529d10f7fbf9a37294d6b13e4d63d06f9909a15b949596508351928352820152a280f35b634e487b7160e01b865260118752602486fd5b634e487b7160e01b8952888a52602489fd5b634e487b7160e01b895260418a52602489fd5b835162461bcd60e51b8152808801869052601d60248201527f496e76616c696420536e617073686f743a20537570706c7920697320300000006044820152606490fd5b90508481813d83116103b9575b6103a68183610a6c565b810103126103b5575187610265565b8580fd5b503d61039c565b84513d88823e3d90fd5b825162461bcd60e51b8152808701859052601a60248201527f4e6f206e65772066756e647320746f20646973747269627574650000000000006044820152606490fd5b8284346100fd57816003193601126100fd57905490516001600160a01b039091168152602090f35b839150346101cc57816003193601126101cc576024356001600160a01b03811691908290036104805760209360ff928285933583528652828220908252855220541690519015158152f35b8380fd5b8284346100fd57816003193601126100fd576020906005549051908152f35b82346104fd57806003193601126104fd576104bc6109bf565b80546001600160a01b03198116825581906001600160a01b03167f8be0079c531659141344cd1fd0a4f28419497f9722a3daafe3b4186f6b6457e08280a380f35b80fd5b839150346101cc5760203660031901126101cc5735916003548310156104fd575061052c60609261096f565b50805491600260018301549201549181519384526020840152820152f35b8284346100fd57816003193601126100fd576020906003549051908152f35b84849234610480576020806003193601126101c857813592600194600286541461092e57506002855560035484101561090057838652828252808620338752825260ff81872054166108cd576105be8461096f565b5092828251946105cd86610a3a565b8054958681528460028a840154938584019485520154910190815260018060a01b03600254169185519384809463277166bf60e11b8252338883015260249a8b83015260449687915afa9283156108c3578b93610890575b50821561084f57518083029283040361083d575190811561082b57049485156107fc578547106107af57868952828552838920338a5285528389208860ff1982541617905561067686600654610a8e565b600655854710610770578880808089335af13d1561076b573d67ffffffffffffffff8111610759578551906106b4601f8201601f1916890183610a6c565b81528a873d92013e5b156106f457505050907f987d620f307ff6b94d58743cb7a7509f24071586a77759b77c2d4e29f75a2f9a91519283523392a3805580f35b603a906084957f416464726573733a20756e61626c6520746f2073656e642076616c75652c20729495519562461bcd60e51b87528601528401528201527f6563697069656e74206d617920686176652072657665727465640000000000006064820152fd5b634e487b7160e01b8b5260418552828bfd5b6106bd565b601d906064957f416464726573733a20696e73756666696369656e742062616c616e63650000009495519562461bcd60e51b8752860152840152820152fd5b6025906084957f436f6e747261637420756e64657266756e6465642028437269746963616c20459495519562461bcd60e51b87528601528401528201526472726f722960d81b6064820152fd5b600d906064956c5368617265206973207a65726f60981b9495519562461bcd60e51b8752860152840152820152fd5b634e487b7160e01b8a5260128452868afd5b634e487b7160e01b8a5260118452868afd5b855162461bcd60e51b8152808601889052601a818a01527f4e6f20746f6b656e732068656c6420617420736e617073686f7400000000000081860152606490fd5b9092508681813d83116108bc575b6108a88183610a6c565b810103126108b85751918b610625565b8a80fd5b503d61089e565b86513d8d823e3d90fd5b5162461bcd60e51b815291820152600f60248201526e105b1c9958591e4818db185a5b5959608a1b604482015260649150fd5b5162461bcd60e51b815291820152600a602482015269125b9d985b1a5908125160b21b604482015260649150fd5b62461bcd60e51b8152838101839052601f60248201527f5265656e7472616e637947756172643a207265656e7472616e742063616c6c006044820152606490fd5b6003548110156109a95760039081600052027fc2575a0e9e593c00f959f8c92f12db2869c3395a3b0502d05e2516446f71f85b0190600090565b634e487b7160e01b600052603260045260246000fd5b6000546001600160a01b031633036109d357565b606460405162461bcd60e51b815260206004820152602060248201527f4f776e61626c653a2063616c6c6572206973206e6f7420746865206f776e65726044820152fd5b91908203918211610a2457565b634e487b7160e01b600052601160045260246000fd5b6060810190811067ffffffffffffffff821117610a5657604052565b634e487b7160e01b600052604160045260246000fd5b90601f8019910116810190811067ffffffffffffffff821117610a5657604052565b91908201809211610a245756fea2646970667358221220fea0c0b4068fa5ada74139428b58be25cb1552c4d34ea7e43ee1544b7918346b64736f6c63430008140033",
  "linkReferences": {},
  "deployedLinkReferences": {}
}