{
  "_format": "hh-sol-artifact-1",
  "contractName": "JobRegistry",
  "sourceName": "contracts/JobRegistry.sol",
  "abi": [
    {
      "inputs": [
        {
          "internalType": "address",
          "name": "_tokenAddress",
          "type": "address"
        },
        {
          "internalType": "address",
          "name": "_executionRegistry",
          "type": "address"
        },
        {
          "internalType": "address",
          "name": "_companyRegistry",
          "type": "address"
        }
      ],
      "stateMutability": "nonpayable",
      "type": "constructor"
    },
    {
      "anonymous": false,
      "inputs": [
        {
          "indexed": true,
          "internalType": "uint256",
          "name": "jobId",
          "type": "uint256"
        },
        {
          "indexed": true,
          "internalType": "address",
          "name": "applicant",
          "type": "address"
        },
        {
          "indexed": false,
          "internalType": "uint256",
          "name": "tier",
          "type": "uint256"
        }
      ],
      "name": "Applied",
      "type": "event"
    },
    {
      "anonymous": false,
      "inputs": [
        {
          "indexed": true,
          "internalType": "uint256",
          "name": "jobId",
          "type": "uint256"
        },
        {
          "indexed": true,
          "internalType": "address",
          "name": "executor",
          "type": "address"
        }
      ],
      "name": "ExecutorAssigned",
      "type": "event"
    },
    {
      "anonymous": false,
      "inputs": [
        {
          "indexed": true,
          "internalType": "uint256",
          "name": "jobId",
          "type": "uint256"
        },
        {
          "indexed": true,
          "internalType": "address",
          "name": "executor",
          "type": "address"
        }
      ],
      "name": "JobCompleted",
      "type": "event"
    },
    {
      "anonymous": false,
      "inputs": [
        {
          "indexed": true,
          "internalType": "uint256",
          "name": "jobId",
          "type": "uint256"
        },
        {
          "indexed": true,
          "internalType": "address",
          "name": "poster",
          "type": "address"
        },
        {
          "indexed": false,
          "internalType": "uint256",
          "name": "proposalId",
          "type": "uint256"
        }
      ],
      "name": "JobPosted",
      "type": "event"
    },
    {
      "anonymous": false,
      "inputs": [
        {
          "indexed": true,
          "internalType": "address",
          "name": "previousOwner",
          "type": "address"
        },
        {
          "indexed": true,
          "internalType": "address",
          "name": "newOwner",
          "type": "address"
        }
      ],
      "name": "OwnershipTransferred",
      "type": "event"
    },
    {
      "inputs": [
        {
          "internalType": "uint256",
          "name": "_jobId",
          "type": "uint256"
        },
        {
          "internalType": "string",
          "name": "_metadataURI",
          "type": "string"
        }
      ],
      "name": "applyForJob",
      "outputs": [],
      "stateMutability": "nonpayable",
      "type": "function"
    },
    {
      "inputs": [
        {
          "internalType": "uint256",
          "name": "_jobId",
          "type": "uint256"
        },
        {
          "internalType": "address",
          "name": "_executor",
          "type": "address"
        }
      ],
      "name": "assignExecutor",
      "outputs": [],
      "stateMutability": "nonpayable",
      "type": "function"
    },
    {
      "inputs": [],
      "name": "companyRegistry",
      "outputs": [
        {
          "internalType": "contract CompanyRegistry",
          "name": "",
          "type": "address"
        }
      ],
      "stateMutability": "view",
      "type": "function"
    },
    {
      "inputs": [
        {
          "internalType": "uint256",
          "name": "_jobId",
          "type": "uint256"
        }
      ],
      "name": "completeJob",
      "outputs": [],
      "stateMutability": "nonpayable",
      "type": "function"
    },
    {
      "inputs": [],
      "name": "executionRegistry",
      "outputs": [
        {
          "internalType": "contract ExecutionRegistry",
          "name": "",
          "type": "address"
        }
      ],
      "stateMutability": "view",
      "type": "function"
    },
    {
      "inputs": [
        {
          "internalType": "uint256",
          "name": "_id",
          "type": "uint256"
        }
      ],
      "name": "getJob",
      "outputs": [
        {
          "components": [
            {
              "internalType": "uint256",
              "name": "id",
              "type": "uint256"
            },
            {
              "internalType": "address",
              "name": "poster",
              "type": "address"
            },
            {
              "internalType": "uint256",
              "name": "proposalId",
              "type": "uint256"
            },
            {
              "internalType": "string",
              "name": "metadataURI",
              "type": "string"
            },
            {
              "internalType": "uint256",
              "name": "budget",
              "type": "uint256"
            },
            {
              "internalType": "address",
              "name": "paymentToken",
              "type": "address"
            },
            {
              "internalType": "enum JobRegistry.JobStatus",
              "name": "status",
              "type": "uint8"
            },
            {
              "internalType": "address",
              "name": "executor",
              "type": "address"
            },
            {
              "internalType": "uint256",
              "name": "postedAt",
              "type": "uint256"
            }
          ],
          "internalType": "struct JobRegistry.Job",
          "name": "",
          "type": "tuple"
        }
      ],
      "stateMutability": "view",
      "type": "function"
    },
    {
      "inputs": [
        {
          "internalType": "uint256",
          "name": "_id",
          "type": "uint256"
        }
      ],
      "name": "getJobApplications",
      "outputs": [
        {
          "components": [
            {
              "internalType": "uint256",
              "name": "jobId",
              "type": "uint256"
            },
            {
              "internalType": "address",
              "name": "applicant",
              "type": "address"
            },
            {
              "internalType": "string",
              "name": "metadataURI",
              "type": "string"
            },
            {
              "internalType": "uint256",
              "name": "tier",
              "type": "uint256"
            },
            {
              "internalType": "uint256",
              "name": "timestamp",
              "type": "uint256"
            }
          ],
          "internalType": "struct JobRegistry.Application[]",
          "name": "",
          "type": "tuple[]"
        }
      ],
      "stateMutability": "view",
      "type": "function"
    },
    {
      "inputs": [
        {
          "internalType": "address",
          "name": "account",
          "type": "address"
        }
      ],
      "name": "getTier",
      "outputs": [
        {
          "internalType": "uint256",
          "name": "",
          "type": "uint256"
        }
      ],
      "stateMutability": "view",
      "type": "function"
    },
    {
      "inputs": [
        {
          "internalType": "uint256",
          "name": "",
          "type": "uint256"
        },
        {
          "internalType": "uint256",
          "name": "",
          "type": "uint256"
        }
      ],
      "name": "jobApplications",
      "outputs": [
        {
          "internalType": "uint256",
          "name": "jobId",
          "type": "uint256"
        },
        {
          "internalType": "address",
          "name": "applicant",
          "type": "address"
        },
        {
          "internalType": "string",
          "name": "metadataURI",
          "type": "string"
        },
        {
          "internalType": "uint256",
          "name": "tier",
          "type": "uint256"
        },
        {
          "internalType": "uint256",
          "name": "timestamp",
          "type": "uint256"
        }
      ],
      "stateMutability": "view",
      "type": "function"
    },
    {
      "inputs": [
        {
          "internalType": "uint256",
          "name": "",
          "type": "uint256"
        }
      ],
      "name": "jobs",
      "outputs": [
        {
          "internalType": "uint256",
          "name": "id",
          "type": "uint256"
        },
        {
          "internalType": "address",
          "name": "poster",
          "type": "address"
        },
        {
          "internalType": "uint256",
          "name": "proposalId",
          "type": "uint256"
        },
        {
          "internalType": "string",
          "name": "metadataURI",
          "type": "string"
        },
        {
          "internalType": "uint256",
          "name": "budget",
          "type": "uint256"
        },
        {
          "internalType": "address",
          "name": "paymentToken",
          "type": "address"
        },
        {
          "internalType": "enum JobRegistry.JobStatus",
          "name": "status",
          "type": "uint8"
        },
        {
          "internalType": "address",
          "name": "executor",
          "type": "address"
        },
        {
          "internalType": "uint256",
          "name": "postedAt",
          "type": "uint256"
        }
      ],
      "stateMutability": "view",
      "type": "function"
    },
    {
      "inputs": [
        {
          "internalType": "address",
          "name": "",
          "type": "address"
        },
        {
          "internalType": "uint256",
          "name": "",
          "type": "uint256"
        }
      ],
      "name": "myApplications",
      "outputs": [
        {
          "internalType": "uint256",
          "name": "",
          "type": "uint256"
        }
      ],
      "stateMutability": "view",
      "type": "function"
    },
    {
      "inputs": [
        {
          "internalType": "address",
          "name": "",
          "type": "address"
        },
        {
          "internalType": "uint256",
          "name": "",
          "type": "uint256"
        }
      ],
      "name": "myJobs",
      "outputs": [
        {
          "internalType": "uint256",
          "name": "",
          "type": "uint256"
        }
      ],
      "stateMutability": "view",
      "type": "function"
    },
    {
      "inputs": [],
      "name": "nextJobId",
      "outputs": [
        {
          "internalType": "uint256",
          "name": "",
          "type": "uint256"
        }
      ],
      "stateMutability": "view",
      "type": "function"
    },
    {
      "inputs": [],
      "name": "owner",
      "outputs": [
        {
          "internalType": "address",
          "name": "",
          "type": "address"
        }
      ],
      "stateMutability": "view",
      "type": "function"
    },
    {
      "inputs": [
        {
          "internalType": "uint256",
          "name": "_proposalId",
          "type": "uint256"
        },
        {
          "internalType": "string",
          "name": "_metadataURI",
          "type": "string"
        },
        {
          "internalType": "uint256",
          "name": "_budget",
          "type": "uint256"
        },
        {
          "internalType": "address",
          "name": "_paymentToken",
          "type": "address"
        }
      ],
      "name": "postJob",
      "outputs": [],
      "stateMutability": "nonpayable",
      "type": "function"
    },
    {
      "inputs": [],
      "name": "renounceOwnership",
      "outputs": [],
      "stateMutability": "nonpayable",
      "type": "function"
    },
    {
      "inputs": [],
      "name": "token",
      "outputs": [
        {
          "internalType": "contract TRSToken",
          "name": "",
          "type": "address"
        }
      ],
      "stateMutability": "view",
      "type": "function"
    },
    {
      "inputs": [
        {
          "internalType": "address",
          "name": "newOwner",
          "type": "address"
        }
      ],
      "name": "transferOwnership",
      "outputs": [],
      "stateMutability": "nonpayable",
      "type": "function"
    }
  ],
  "bytecode": "0x6080346100e357601f6200178638819003918201601f19168301916001600160401b038311848410176100e8578084926060946040528339810103126100e357610048816100fe565b6100606040610059602085016100fe565b93016100fe565b600080546001600160a01b03198082163390811784556040519691956001600160a01b0395948694859391908416907f8be0079c531659141344cd1fd0a4f28419497f9722a3daafe3b4186f6b6457e09080a360016004551685600154161760015516836002541617600255169060035416176003556116739081620001138239f35b600080fd5b634e487b7160e01b600052604160045260246000fd5b51906001600160a01b03821682036100e35756fe6080604052600436101561001257600080fd5b60003560e01c8063180aedf3146111115780632f2b687914610d6e57806369c6a1c214610c7e5780636c09a5e314610905578063715018a6146108ac578063747143b91461073d5780638da5cb5b146107145780638ee23d1f146106eb578063a1c0d32f14610514578063b0c2aa5e146104f6578063b45aae52146104cb578063bf22c4571461032f578063c51aba2b14610306578063d4786b14146102bc578063ead39a111461022c578063ef88d511146101d4578063f2fde38b146101105763fc0c546a146100e257600080fd5b3461010b57600036600319011261010b576001546040516001600160a01b039091168152602090f35b600080fd5b3461010b57602036600319011261010b576101296113a4565b610131611404565b6001600160a01b0390811690811561018057600054826001600160601b0360a01b821617600055167f8be0079c531659141344cd1fd0a4f28419497f9722a3daafe3b4186f6b6457e0600080a3005b60405162461bcd60e51b815260206004820152602660248201527f4f776e61626c653a206e6577206f776e657220697320746865207a65726f206160448201526564647265737360d01b6064820152608490fd5b3461010b57604036600319011261010b576101ed6113a4565b6001600160a01b031660009081526008602052604090208054602435919082101561010b5760209161021e916113ba565b90546040519160031b1c8152f35b3461010b57604036600319011261010b576024356004356000526006602052604060002090815481101561010b57610263916113e8565b50805460018201546001600160a01b0316916102816002820161125a565b6102ad60046003840154930154916040519586958652602086015260a0604086015260a0850190611300565b91606084015260808301520390f35b3461010b57604036600319011261010b576102d56113a4565b6001600160a01b031660009081526007602052604090208054602435919082101561010b5760209161021e916113ba565b3461010b57600036600319011261010b576003546040516001600160a01b039091168152602090f35b3461010b57602036600319011261010b576000610100604051610351816111ff565b8281528260208201528260408201526060808201528260808201528260a08201528260c08201528260e08201520152600435600052600560205260406000206040519061039d826111ff565b8054825260018101546001600160a01b03166020830152600281015460408301526103ca6003820161125a565b60608301526004810154608083015260ff600582015460018060a01b03811660a085015260a01c169060048210156104b55760079160c084015260018060a01b0360068201541660e084015201546101008201526040518091602082528051602083015260018060a01b03602082015116604083015260408101516060830152606081015161010061046a61012092836080870152610140860190611300565b92608081015160a086015260018060a01b0360a08201511660c086015261049960c082015160e0870190611340565b60e08101516001600160a01b0316858301520151908301520390f35b634e487b7160e01b600052602160045260246000fd5b3461010b57602036600319011261010b5760206104ee6104e96113a4565b61146a565b604051908152f35b3461010b57600036600319011261010b576020600454604051908152f35b3461010b5760208060031936011261010b57600435806000526005825260406000209160018060a01b038060018501541633036106a657600584019182549160ff8360a01c1660048110156104b55760010361067057818160066024936002541698015416966040519283809263b9209e3360e01b82528a60048301525afa90811561066457600091610637575b50156105df575060ff60a01b1916600160a11b1790557f16a7286196330eaff0c7db2ec34ead9c6d2d023b356b62ee7ea644c842a84b67600080a3005b6084906040519062461bcd60e51b82526004820152602b60248201527f4578656375746f72204e4f542056657269666965642e2043616e6e6f7420636f60448201526a36b83632ba3297b830bc9760a91b6064820152fd5b6106579150823d841161065d575b61064f8183611238565b8101906115b5565b866105a2565b503d610645565b6040513d6000823e3d90fd5b60405162461bcd60e51b815260048101839052600e60248201526d129bd8881b9bdd08199a5b1b195960921b6044820152606490fd5b60405162461bcd60e51b815260048101839052601860248201527f4f6e6c7920706f737465722063616e20636f6d706c65746500000000000000006044820152606490fd5b3461010b57600036600319011261010b576002546040516001600160a01b039091168152602090f35b3461010b57600036600319011261010b576000546040516001600160a01b039091168152602090f35b3461010b5760208060031936011261010b576004356000526006815260406000209081549167ffffffffffffffff831161089657604051916005936107868282871b0185611238565b808452818401809360005282600020866000925b848410610837575050505050604051928184019082855251809152604081818601961b85010192916000955b8287106107d35785850386f35b909192938280600192603f1989820301855287519081518152848060a01b03838301511683820152610813604083015160a0806040850152830190611300565b916060808201519083015260808091015191015296019201960195929190926107c6565b908560019260409997995161084b8161121c565b85548152848060a01b0385870154168382015261086a6002870161125a565b60408201526003860154606082015260048601546080820152815201920192019190879096949661079a565b634e487b7160e01b600052604160045260246000fd5b3461010b57600036600319011261010b576108c5611404565b600080546001600160a01b0319811682556001600160a01b03167f8be0079c531659141344cd1fd0a4f28419497f9722a3daafe3b4186f6b6457e08280a3005b3461010b57604036600319011261010b57602467ffffffffffffffff813581811161010b5761093890369060040161134d565b600435600052600560205260406000209160ff600584015460a01c16926004841015610c695761096a60019415611602565b838060a01b039384910154163314610c25576109853361146a565b9360018510610bcb576004356000526006602052604060002092604051936109ac8561121c565b6004358552602085019033825260408601928352876060870152426080870152805490600160401b821015610bb657906109eb916001820181556113e8565b969096610ba15785518755600187019151166001600160601b0360a01b82541617905551908151928311610b8d5750610a2760028501546111c5565b601f8111610b42575b50602090601f8311600114610acd57918060049492608094600092610ac2575b50508160011b916000199060031b1c19161760028501555b606081015160038501550151910155336000526008602052610a9060043560406000206115cd565b60405190815233907f77813f331a0748806a13ce2604421e1b5fbfbbc9d1f20751a8f218e3608965e7602060043592a3005b015190508780610a50565b906002850160005260206000209160005b601f1985168110610b2a5750926004949260019260809583601f19811610610b11575b505050811b016002850155610a68565b015160001960f88460031b161c19169055878080610b01565b91926020600181928685015181550194019201610ade565b600285016000526020600020601f840160051c81019160208510610b83575b601f0160051c01905b818110610b775750610a30565b60008155600101610b6a565b9091508190610b61565b634e487b7160e01b60009081526041600452fd5b83634e487b7160e01b60005260006004526000fd5b84634e487b7160e01b60005260416004526000fd5b608490602d6040519162461bcd60e51b8352602060048401528201527f4d757374206265206174206c656173742061204d656d6265722028313230302060448201526c5452532920746f206170706c7960981b6064820152fd5b60405162461bcd60e51b8152602060048201526017818601527f43616e6e6f74206170706c7920746f206f776e206a6f620000000000000000006044820152606490fd5b84634e487b7160e01b60005260216004526000fd5b3461010b57604036600319011261010b576001600160a01b03602435818116916004359183900361010b578160005260056020526040600020906001820154163303610d3057600581019081549060ff8260a01c169060048210156104b557610ce960069215611602565b0180546001600160a01b0319168517905560ff60a01b1916600160a01b1790557f39cbe5382b8c2dca66bebe9ccd3f49a1aaa27bff13f650b2dc6297fa38e1901d600080a3005b60405162461bcd60e51b815260206004820152601660248201527527b7363c903837b9ba32b91031b0b71030b9b9b4b3b760511b6044820152606490fd5b3461010b57608036600319011261010b5760243567ffffffffffffffff811161010b57610d9f90369060040161134d565b6064356001600160a01b038116919082900361010b576003610dc03361146a565b106024602060018060a01b03600354166040519283809263b9209e3360e01b82523360048301525afa908115610664576000916110f2575b508115916110ea575b5015611099576004549060405192610e18846111ff565b82845260208401923384526040850191600435835260608601938452604435608087015260a0860152600060c0860152600060e086015242610100860152600052600560205260406000209284518455600184019060018060a01b039051166001600160601b0360a01b8254161790555160028301555191825167ffffffffffffffff811161089657610eae60038401546111c5565b601f8111611052575b506020601f8211600114610fe45781929394600092610fd9575b50508160011b916000199060031b1c19161760038301555b6080810151600483015560018060a01b0360a0820151169060058301549060c08101519160048310156104b5576007936101009360ff60a01b9060a01b16916affffffffffffffffffffff60a81b16171760058501556006840160018060a01b0360e0830151166001600160601b0360a01b8254161790550151910155336000526007602052610f806040600020600454906115cd565b6004546040516004358152817fe6f2f347838fc981db964da8bbb1855db0ed5008037096e90da474c23b0f432b60203393a36000198114610fc357600101600455005b634e487b7160e01b600052601160045260246000fd5b015190508480610ed1565b6003840160005260206000209060005b601f198416811061103a5750600193949583601f19811610611021575b505050811b016003830155610ee9565b015160001960f88460031b161c19169055848080611011565b9091602060018192858a015181550193019101610ff4565b600384016000526020600020601f830160051c810160208410611092575b601f830160051c82018110611086575050610eb7565b60008155600101611070565b5080611070565b60405162461bcd60e51b815260206004820152602360248201527f4d75737420626520466f756e646572206f7220566572696669656420436f6d70604482015262616e7960e81b6064820152608490fd5b905083610e01565b61110b915060203d60201161065d5761064f8183611238565b84610df8565b3461010b57602036600319011261010b5760043560009081526005602052604090208054600182015460028301546001600160a01b03918216936111b661115a6003830161125a565b600483015494611199600585015492600783600688015416960154966040519a8b9a8b5260208b015260408a01526101208060608b0152890190611300565b956080880152811660a087015260ff60c087019160a01c16611340565b60e08401526101008301520390f35b90600182811c921680156111f5575b60208310146111df57565b634e487b7160e01b600052602260045260246000fd5b91607f16916111d4565b610120810190811067ffffffffffffffff82111761089657604052565b60a0810190811067ffffffffffffffff82111761089657604052565b90601f8019910116810190811067ffffffffffffffff82111761089657604052565b906040519182600082549261126e846111c5565b9081845260019485811690816000146112dd575060011461129a575b505061129892500383611238565b565b9093915060005260209081600020936000915b8183106112c55750506112989350820101388061128a565b855488840185015294850194879450918301916112ad565b91505061129894506020925060ff191682840152151560051b820101388061128a565b919082519283825260005b84811061132c575050826000602080949584010152601f8019910116010190565b60208183018101518483018201520161130b565b9060048210156104b55752565b81601f8201121561010b5780359067ffffffffffffffff82116108965760405192611382601f8401601f191660200185611238565b8284526020838301011161010b57816000926020809301838601378301015290565b600435906001600160a01b038216820361010b57565b80548210156113d25760005260206000200190600090565b634e487b7160e01b600052603260045260246000fd5b80548210156113d2576000526005602060002091020190600090565b6000546001600160a01b0316330361141857565b606460405162461bcd60e51b815260206004820152602060248201527f4f776e61626c653a2063616c6c6572206973206e6f7420746865206f776e65726044820152fd5b604d8111610fc357600a0a90565b6001546040516370a0823160e01b81526001600160a01b03928316600482015291602091168183602481845afa92831561066457600093611586575b50816004916040519283809263313ce56760e01b82525afa91821561066457600092611547575b505060ff166114db8161145c565b615dc09080820291820403610fc357821015611540576114fa8161145c565b612ee09080820291820403610fc357821015611539576115199061145c565b906104b09180830292830403610fc357101561153457600090565b600190565b5050600290565b5050600390565b81813d831161157f575b61155b8183611238565b8101031261157b57519060ff82168203611578575060ff386114cd565b80fd5b5080fd5b503d611551565b90928282813d83116115ae575b61159d8183611238565b8101031261157857505191816114a6565b503d611593565b9081602091031261010b5751801515810361010b5790565b8054600160401b811015610896576115ea916001820181556113ba565b819291549060031b91821b91600019901b1916179055565b1561160957565b60405162461bcd60e51b815260206004820152600c60248201526b2537b1103737ba1037b832b760a11b6044820152606490fdfea26469706673582212200102d8844cd8581efe605e427b992bc61c629ec25c4f11cd70cefc250b7ef4ee64736f6c63430008140033",
  "linkReferences": {},
  "deployedLinkReferences": {}
}