{
  "_format": "hh-sol-artifact-1",
  "contractName": "ProjectEscrow",
  "sourceName": "contracts/ProjectEscrow.sol",
  "abi": [
    {
      "inputs": [
        {
          "internalType": "string",
          "name": "_projectId",
          "type": "string"
        },
        {
          "internalType": "string",
          "name": "_title",
          "type": "string"
        },
        {
          "internalType": "string",
          "name": "_category",
          "type": "string"
        },
        {
          "internalType": "string",
          "name": "_country",
          "type": "string"
        },
        {
          "internalType": "string",
          "name": "_region",
          "type": "string"
        },
        {
          "internalType": "address",
          "name": "_executor",
          "type": "address"
        },
        {
          "internalType": "contract IERC20",
          "name": "_budgetToken",
          "type": "address"
        },
        {
          "internalType": "address",
          "name": "_owner",
          "type": "address"
        },
        {
          "internalType": "uint256[]",
          "name": "_milestoneAmounts",
          "type": "uint256[]"
        },
        {
          "internalType": "string[]",
          "name": "_milestoneDescriptions",
          "type": "string[]"
        }
      ],
      "stateMutability": "nonpayable",
      "type": "constructor"
    },
    {
      "anonymous": false,
      "inputs": [
        {
          "indexed": true,
          "internalType": "uint256",
          "name": "index",
          "type": "uint256"
        },
        {
          "indexed": false,
          "internalType": "uint256",
          "name": "amount",
          "type": "uint256"
        }
      ],
      "name": "MilestoneReleased",
      "type": "event"
    },
    {
      "anonymous": false,
      "inputs": [
        {
          "indexed": true,
          "internalType": "address",
          "name": "previousOwner",
          "type": "address"
        },
        {
          "indexed": true,
          "internalType": "address",
          "name": "newOwner",
          "type": "address"
        }
      ],
      "name": "OwnershipTransferred",
      "type": "event"
    },
    {
      "inputs": [],
      "name": "budgetToken",
      "outputs": [
        {
          "internalType": "contract IERC20",
          "name": "",
          "type": "address"
        }
      ],
      "stateMutability": "view",
      "type": "function"
    },
    {
      "inputs": [],
      "name": "category",
      "outputs": [
        {
          "internalType": "string",
          "name": "",
          "type": "string"
        }
      ],
      "stateMutability": "view",
      "type": "function"
    },
    {
      "inputs": [],
      "name": "country",
      "outputs": [
        {
          "internalType": "string",
          "name": "",
          "type": "string"
        }
      ],
      "stateMutability": "view",
      "type": "function"
    },
    {
      "inputs": [],
      "name": "executor",
      "outputs": [
        {
          "internalType": "address",
          "name": "",
          "type": "address"
        }
      ],
      "stateMutability": "view",
      "type": "function"
    },
    {
      "inputs": [
        {
          "internalType": "uint256",
          "name": "index",
          "type": "uint256"
        }
      ],
      "name": "getMilestone",
      "outputs": [
        {
          "internalType": "uint256",
          "name": "amount",
          "type": "uint256"
        },
        {
          "internalType": "string",
          "name": "description",
          "type": "string"
        },
        {
          "internalType": "bool",
          "name": "approved",
          "type": "bool"
        },
        {
          "internalType": "bool",
          "name": "paid",
          "type": "bool"
        }
      ],
      "stateMutability": "view",
      "type": "function"
    },
    {
      "inputs": [],
      "name": "getMilestoneCount",
      "outputs": [
        {
          "internalType": "uint256",
          "name": "",
          "type": "uint256"
        }
      ],
      "stateMutability": "view",
      "type": "function"
    },
    {
      "inputs": [
        {
          "internalType": "uint256",
          "name": "",
          "type": "uint256"
        }
      ],
      "name": "milestones",
      "outputs": [
        {
          "internalType": "uint256",
          "name": "amount",
          "type": "uint256"
        },
        {
          "internalType": "string",
          "name": "description",
          "type": "string"
        },
        {
          "internalType": "bool",
          "name": "approved",
          "type": "bool"
        },
        {
          "internalType": "bool",
          "name": "paid",
          "type": "bool"
        }
      ],
      "stateMutability": "view",
      "type": "function"
    },
    {
      "inputs": [],
      "name": "owner",
      "outputs": [
        {
          "internalType": "address",
          "name": "",
          "type": "address"
        }
      ],
      "stateMutability": "view",
      "type": "function"
    },
    {
      "inputs": [],
      "name": "projectId",
      "outputs": [
        {
          "internalType": "string",
          "name": "",
          "type": "string"
        }
      ],
      "stateMutability": "view",
      "type": "function"
    },
    {
      "inputs": [],
      "name": "region",
      "outputs": [
        {
          "internalType": "string",
          "name": "",
          "type": "string"
        }
      ],
      "stateMutability": "view",
      "type": "function"
    },
    {
      "inputs": [
        {
          "internalType": "uint256",
          "name": "index",
          "type": "uint256"
        }
      ],
      "name": "releaseMilestone",
      "outputs": [],
      "stateMutability": "nonpayable",
      "type": "function"
    },
    {
      "inputs": [],
      "name": "renounceOwnership",
      "outputs": [],
      "stateMutability": "nonpayable",
      "type": "function"
    },
    {
      "inputs": [],
      "name": "title",
      "outputs": [
        {
          "internalType": "string",
          "name": "",
          "type": "string"
        }
      ],
      "stateMutability": "view",
      "type": "function"
    },
    {
      "inputs": [
        {
          "internalType": "address",
          "name": "newOwner",
          "type": "address"
        }
      ],
      "name": "transferOwnership",
      "outputs": [],
      "stateMutability": "nonpayable",
      "type": "function"
    }
  ],
  "bytecode": "0x60806040523462000d505762001be080380390816200001e8162000d66565b91823961014081838101031262000d505780516001600160401b03811162000d5057620000519083830190830162000d8c565b60208201519092906001600160401b03811162000d5057620000799082840190840162000d8c565b60408301516001600160401b03811162000d50576200009e9083850190850162000d8c565b60608401519091906001600160401b03811162000d5057620000c69084860190860162000d8c565b60808501516001600160401b03811162000d5057620000eb9085870190870162000d8c565b90620000fa60a0870162000dfe565b60c0870151909490936001600160a01b038516850362000d50576200012260e0890162000dfe565b6101008901519099906001600160401b03811162000d5057890197808a01601f8a01121562000d5057885198620001636200015d8b62000e13565b62000d66565b996020808c838152019160051b83010191838d01831162000d5057602001905b82821062000d55575050506101208a0151996001600160401b038b1162000d5057818101601f8c830101121562000d50578a81015190620001c86200015d8362000e13565b9b60208d848152019084830160208560051b83860101011162000d5057602081840101915b60208560051b8386010101831062000d1557505050505050620002103362000e40565b875189510362000cdf578051906001600160401b038211620006c55760015490600182811c9216801562000cd4575b6020831014620006a45781601f84931162000c73575b50602090601f831160011462000bf55760009262000be9575b50508160011b916000199060031b1c1916176001555b8051906001600160401b038211620006c55760025490600182811c9216801562000bde575b6020831014620006a45781601f84931162000b7d575b50602090601f831160011462000aff5760009262000af3575b50508160011b916000199060031b1c1916176002555b8051906001600160401b038211620006c55760035490600182811c9216801562000ae8575b6020831014620006a45781601f84931162000a76575b50602090601f8311600114620009e757600092620009db575b50508160011b916000199060031b1c1916176003555b8051906001600160401b038211620006c55760045490600182811c92168015620009d0575b6020831014620006a45781601f8493116200095e575b50602090601f8311600114620008cf57600092620008c3575b50508160011b916000199060031b1c1916176004555b8051906001600160401b038211620006c55760055490600182811c92168015620008b8575b6020831014620006a45781601f84931162000862575b50602090601f8311600114620007d357600092620007c7575b50508160011b916000199060031b1c1916176005555b600680546001600160a01b039384166001600160a01b0319918216179091556007805492909316911617905560005b8151811015620006f15762000471818362000e2b565b516200047e828562000e2b565b51604051916001600160401b036080840190811190841117620006c5576080830160405282526020820152600060408201526000606082015260085468010000000000000000811015620006c5576001810180600855811015620006db576008600052602060002090825160038202830155602083015180519060018060401b038211620006c55760016003840285010154600181811c91168015620006ba575b6020821014620006a457601f811162000653575b50602090601f8311600114620005d05791806002959492600394600092620005c4575b50508160011b9160001990851b1c1916176001838302850101555b02010190604081015115159060ff61ff0060608554930151151560081b1692169061ffff1916171790556000198114620005ae576001016200045b565b634e487b7160e01b600052601160045260246000fd5b01519050388062000556565b9060016003850286010160005260206000209160005b601f19851681106200063a575092600295949260019260039583601f1981161062000621575b505050811b0160018383028501015562000571565b015160001983871b60f8161c191690553880806200060c565b91926020600181928685015181550194019201620005e6565b6001600385028601016000526020600020601f840160051c8101602085106200069c575b601f830160051c820181106200068f57505062000533565b6000815560010162000677565b508062000677565b634e487b7160e01b600052602260045260246000fd5b90607f16906200051f565b634e487b7160e01b600052604160045260246000fd5b634e487b7160e01b600052603260045260246000fd5b833360018060a01b03600054160362000783576001600160a01b038116156200072f576200071f9062000e40565b604051610d18908162000e888239f35b60405162461bcd60e51b815260206004820152602660248201527f4f776e61626c653a206e6577206f776e657220697320746865207a65726f206160448201526564647265737360d01b6064820152608490fd5b606460405162461bcd60e51b815260206004820152602060248201527f4f776e61626c653a2063616c6c6572206973206e6f7420746865206f776e65726044820152fd5b01519050388062000416565b6005600090815293507f036b6384b5eca791c62761152d0c79bb0604c104a5fb6f4eb0703f3154bb3db091905b601f198416851062000846576001945083601f198116106200082c575b505050811b016005556200042c565b015160001960f88460031b161c191690553880806200081d565b8181015183556020948501946001909301929091019062000800565b90915060056000526020600020601f840160051c810160208510620008b0575b90849392915b601f830160051c82018110620008a0575050620003fd565b6000815585945060010162000888565b508062000882565b91607f1691620003e7565b015190503880620003ac565b6004600090815293507f8a35acfbc15ff81a39ae7d344fd709f28e8600b4aa8c65c6b64bfe7fe36bd19b91905b601f198416851062000942576001945083601f1981161062000928575b505050811b01600455620003c2565b015160001960f88460031b161c1916905538808062000919565b81810151835560209485019460019093019290910190620008fc565b60046000529091507f8a35acfbc15ff81a39ae7d344fd709f28e8600b4aa8c65c6b64bfe7fe36bd19b601f840160051c810160208510620009c8575b90849392915b601f830160051c82018110620009b857505062000393565b60008155859450600101620009a0565b50806200099a565b91607f16916200037d565b01519050388062000342565b6003600090815293507fc2575a0e9e593c00f959f8c92f12db2869c3395a3b0502d05e2516446f71f85b91905b601f198416851062000a5a576001945083601f1981161062000a40575b505050811b0160035562000358565b015160001960f88460031b161c1916905538808062000a31565b8181015183556020948501946001909301929091019062000a14565b60036000529091507fc2575a0e9e593c00f959f8c92f12db2869c3395a3b0502d05e2516446f71f85b601f840160051c81016020851062000ae0575b90849392915b601f830160051c8201811062000ad057505062000329565b6000815585945060010162000ab8565b508062000ab2565b91607f169162000313565b015190503880620002d8565b60026000908152935060008051602062001ba083398151915291905b601f198416851062000b61576001945083601f1981161062000b47575b505050811b01600255620002ee565b015160001960f88460031b161c1916905538808062000b38565b8181015183556020948501946001909301929091019062000b1b565b600260005290915060008051602062001ba0833981519152601f840160051c81016020851062000bd6575b90849392915b601f830160051c8201811062000bc6575050620002bf565b6000815585945060010162000bae565b508062000ba8565b91607f1691620002a9565b0151905038806200026e565b60016000908152935060008051602062001bc083398151915291905b601f198416851062000c57576001945083601f1981161062000c3d575b505050811b0160015562000284565b015160001960f88460031b161c1916905538808062000c2e565b8181015183556020948501946001909301929091019062000c11565b600160005290915060008051602062001bc0833981519152601f840160051c81016020851062000ccc575b90849392915b601f830160051c8201811062000cbc57505062000255565b6000815585945060010162000ca4565b508062000c9e565b91607f16916200023f565b60405162461bcd60e51b815260206004820152600e60248201526d082e4e4c2f240dad2e6dac2e8c6d60931b6044820152606490fd5b8251906001600160401b03821162000d5057602080929162000d428293838b8a0191888b01010162000d8c565b8152019301929050620001ed565b600080fd5b815181526020918201910162000183565b6040519190601f01601f191682016001600160401b03811183821017620006c557604052565b919080601f8401121562000d505782516001600160401b038111620006c55760209062000dc2601f8201601f1916830162000d66565b9281845282828701011162000d505760005b81811062000dea57508260009394955001015290565b858101830151848201840152820162000dd4565b51906001600160a01b038216820362000d5057565b6001600160401b038111620006c55760051b60200190565b8051821015620006db5760209160051b010190565b600080546001600160a01b039283166001600160a01b03198216811783559216907f8be0079c531659141344cd1fd0a4f28419497f9722a3daafe3b4186f6b6457e09080a356fe60406080815260048036101561001457600080fd5b600091823560e01c80632442e1cb146109d9578063317debf51461074e5780633fafa127146106825780634a79d50c146105b55780635062d68d146104e8578063715018a61461048e5780638da5cb5b146104665780638f4cf24714610447578063c34c08e51461041e578063d8b0b49914610329578063e89e4ed6146102d1578063e90df749146102a4578063ef430aa6146101865763f2fde38b146100ba57600080fd5b34610182576020366003190112610182576001600160a01b0382358181169391929084900361017e576100eb610bed565b831561012c57505082546001600160a01b0319811683178455167f8be0079c531659141344cd1fd0a4f28419497f9722a3daafe3b4186f6b6457e08380a380f35b906020608492519162461bcd60e51b8352820152602660248201527f4f776e61626c653a206e6577206f776e657220697320746865207a65726f206160448201526564647265737360d01b6064820152fd5b8480fd5b8280fd5b5082346102a157806003193601126102a1578151918160035492600184811c91818616958615610297575b6020968785108114610284578899509688969785829a52918260001461025d575050600114610201575b5050506101fd92916101ee910385610a93565b51928284938452830190610a26565b0390f35b9190869350600383527fc2575a0e9e593c00f959f8c92f12db2869c3395a3b0502d05e2516446f71f85b5b82841061024557505050820101816101ee6101fd6101db565b8054848a01860152889550879490930192810161022c565b60ff19168782015293151560051b860190930193508492506101ee91506101fd90506101db565b634e487b7160e01b835260228a52602483fd5b92607f16926101b1565b80fd5b8382346102cd57816003193601126102cd5760075490516001600160a01b039091168152602090f35b5080fd5b509190346102cd5760203660031901126102cd5735906008548210156102a157506102fb90610b9c565b506101fd815492600261031060018501610acb565b930154905193849360ff808460081c1693169185610a66565b5082346102a157806003193601126102a15781519181845492600184811c91818616958615610414575b6020968785108114610284579087899a92868b999a9b5291826000146103ea57505060011461038f575b85886101fd896101ee848a0385610a93565b815286935091907f8a35acfbc15ff81a39ae7d344fd709f28e8600b4aa8c65c6b64bfe7fe36bd19b5b8284106103d257505050820101816101ee6101fd8861037d565b8054848a0186015288955087949093019281016103b8565b60ff19168882015294151560051b870190940194508593506101ee92506101fd915089905061037d565b92607f1692610353565b8382346102cd57816003193601126102cd5760065490516001600160a01b039091168152602090f35b8382346102cd57816003193601126102cd576020906008549051908152f35b8382346102cd57816003193601126102cd57905490516001600160a01b039091168152602090f35b83346102a157806003193601126102a1576104a7610bed565b80546001600160a01b03198116825581906001600160a01b03167f8be0079c531659141344cd1fd0a4f28419497f9722a3daafe3b4186f6b6457e08280a380f35b5082346102a157806003193601126102a1578151918160055492600184811c918186169586156105ab575b6020968785108114610284578899509688969785829a52918260001461025d57505060011461054f575050506101fd92916101ee910385610a93565b9190869350600583527f036b6384b5eca791c62761152d0c79bb0604c104a5fb6f4eb0703f3154bb3db05b82841061059357505050820101816101ee6101fd6101db565b8054848a01860152889550879490930192810161057a565b92607f1692610513565b5082346102a157806003193601126102a1578151918160025492600184811c91818616958615610678575b6020968785108114610284578899509688969785829a52918260001461025d57505060011461061c575050506101fd92916101ee910385610a93565b9190869350600283527f405787fa12a823e0f2b7631cc41b3ba8828b3321ca811111fa75cd3aa3bb5ace5b82841061066057505050820101816101ee6101fd6101db565b8054848a018601528895508794909301928101610647565b92607f16926105e0565b5082346102a157806003193601126102a1578151918160019283549384811c91818616958615610744575b6020968785108114610284578899509688969785829a52918260001461025d5750506001146106e9575050506101fd92916101ee910385610a93565b91908693508083527fb10e2d527612073b26eecdfd717e6a320cf44b4afac2b0732d9fcbe2b7fa0cf65b82841061072c57505050820101816101ee6101fd6101db565b8054848a018601528895508794909301928101610713565b92607f16926106ad565b503461018257602090816003193601126109d55782359261076d610bed565b6008548410156109a45761078084610b9c565b509060028201805460ff8160081c166109725761ffff19166101011790556007546006548354855163a9059cbb60e01b8882019081526001600160a01b039384166024830152604480830193909352918152608081019367ffffffffffffffff931691908385118186101761095f5760c081018581108582111761094c5788528885527f5361666545524332303a206c6f772d6c6576656c2063616c6c206661696c656460a0820152518a9182919082855af1903d1561093d573d92831161092a579061086c93929187519261085f8a601f19601f8401160185610a93565b83523d8b8a85013e610c45565b8051858115918215610906575b50509050156108b057505490519081527f9e069181c12760c2cd0078ed4facdbe1f3614543b0fbff5dbcac3cbc61a0b64e9190a280f35b825162461bcd60e51b8152908101849052602a60248201527f5361666545524332303a204552433230206f7065726174696f6e20646964206e6044820152691bdd081cdd58d8d9595960b21b6064820152608490fd5b838092935001031261092657840151801515810361092657808538610879565b8680fd5b634e487b7160e01b8a526041855260248afd5b9061086c939250606091610c45565b634e487b7160e01b8c526041875260248cfd5b634e487b7160e01b8b526041865260248bfd5b845162461bcd60e51b8152808401879052600c60248201526b105b1c9958591e481c185a5960a21b6044820152606490fd5b82606492519162461bcd60e51b8352820152600d60248201526c092dcecc2d8d2c840d2dcc8caf609b1b6044820152fd5b8380fd5b5091346102a15760203660031901126102a157506109f79035610b9c565b50906101fd825492610a10600160028301549201610acb565b925193849360ff808460081c1693169185610a66565b919082519283825260005b848110610a52575050826000602080949584010152601f8019910116010190565b602081830181015184830182015201610a31565b92949390606092610a84918552608060208601526080850190610a26565b94151560408401521515910152565b90601f8019910116810190811067ffffffffffffffff821117610ab557604052565b634e487b7160e01b600052604160045260246000fd5b90604051906000835490600182811c90808416968715610b92575b6020948584108914610b7e5787988489979899529081600014610b5c5750600114610b1d575b505050610b1b92500383610a93565b565b600090815285812095935091905b818310610b44575050610b1b9350820101388080610b0c565b85548884018501529485019487945091830191610b2b565b92505050610b1b94925060ff191682840152151560051b820101388080610b0c565b634e487b7160e01b85526022600452602485fd5b91607f1691610ae6565b600854811015610bd7576003906008600052027ff3f7a9fe364faab93b216da50a3214154f22a0a2b415b23a84c8169e8b636ee30190600090565b634e487b7160e01b600052603260045260246000fd5b6000546001600160a01b03163303610c0157565b606460405162461bcd60e51b815260206004820152602060248201527f4f776e61626c653a2063616c6c6572206973206e6f7420746865206f776e65726044820152fd5b91929015610ca75750815115610c59575090565b3b15610c625790565b60405162461bcd60e51b815260206004820152601d60248201527f416464726573733a2063616c6c20746f206e6f6e2d636f6e74726163740000006044820152606490fd5b825190915015610cba5750805190602001fd5b60405162461bcd60e51b815260206004820152908190610cde906024830190610a26565b0390fdfea264697066735822122070d455f1e1b674181a0633d8141b88790be53b7375e7721ee08030304a7bfd9064736f6c63430008140033405787fa12a823e0f2b7631cc41b3ba8828b3321ca811111fa75cd3aa3bb5aceb10e2d527612073b26eecdfd717e6a320cf44b4afac2b0732d9fcbe2b7fa0cf6",
  "linkReferences": {},
  "deployedLinkReferences": {}
}