{
  "_format": "hh-sol-artifact-1",
  "contractName": "TRSSale",
  "sourceName": "contracts/TRSSale.sol",
  "abi": [
    {
      "inputs": [
        {
          "internalType": "address",
          "name": "_token",
          "type": "address"
        },
        {
          "internalType": "address",
          "name": "_treasury",
          "type": "address"
        }
      ],
      "stateMutability": "nonpayable",
      "type": "constructor"
    },
    {
      "anonymous": false,
      "inputs": [
        {
          "indexed": true,
          "internalType": "address",
          "name": "previousOwner",
          "type": "address"
        },
        {
          "indexed": true,
          "internalType": "address",
          "name": "newOwner",
          "type": "address"
        }
      ],
      "name": "OwnershipTransferred",
      "type": "event"
    },
    {
      "anonymous": false,
      "inputs": [
        {
          "indexed": false,
          "internalType": "uint256",
          "name": "timestamp",
          "type": "uint256"
        },
        {
          "indexed": false,
          "internalType": "uint256",
          "name": "finalPrice",
          "type": "uint256"
        }
      ],
      "name": "SaleEnded",
      "type": "event"
    },
    {
      "anonymous": false,
      "inputs": [
        {
          "indexed": false,
          "internalType": "uint256",
          "name": "timestamp",
          "type": "uint256"
        }
      ],
      "name": "SaleStarted",
      "type": "event"
    },
    {
      "anonymous": false,
      "inputs": [
        {
          "indexed": true,
          "internalType": "address",
          "name": "buyer",
          "type": "address"
        },
        {
          "indexed": false,
          "internalType": "uint256",
          "name": "amount",
          "type": "uint256"
        },
        {
          "indexed": false,
          "internalType": "uint256",
          "name": "price",
          "type": "uint256"
        }
      ],
      "name": "TokensPurchased",
      "type": "event"
    },
    {
      "inputs": [],
      "name": "DOUBLING_PERIOD",
      "outputs": [
        {
          "internalType": "uint256",
          "name": "",
          "type": "uint256"
        }
      ],
      "stateMutability": "view",
      "type": "function"
    },
    {
      "inputs": [],
      "name": "INITIAL_PRICE",
      "outputs": [
        {
          "internalType": "uint256",
          "name": "",
          "type": "uint256"
        }
      ],
      "stateMutability": "view",
      "type": "function"
    },
    {
      "inputs": [],
      "name": "MAX_PRICE",
      "outputs": [
        {
          "internalType": "uint256",
          "name": "",
          "type": "uint256"
        }
      ],
      "stateMutability": "view",
      "type": "function"
    },
    {
      "inputs": [],
      "name": "buyTokens",
      "outputs": [],
      "stateMutability": "payable",
      "type": "function"
    },
    {
      "inputs": [],
      "name": "getCurrentPrice",
      "outputs": [
        {
          "internalType": "uint256",
          "name": "",
          "type": "uint256"
        }
      ],
      "stateMutability": "view",
      "type": "function"
    },
    {
      "inputs": [],
      "name": "owner",
      "outputs": [
        {
          "internalType": "address",
          "name": "",
          "type": "address"
        }
      ],
      "stateMutability": "view",
      "type": "function"
    },
    {
      "inputs": [],
      "name": "renounceOwnership",
      "outputs": [],
      "stateMutability": "nonpayable",
      "type": "function"
    },
    {
      "inputs": [],
      "name": "saleEnded",
      "outputs": [
        {
          "internalType": "bool",
          "name": "",
          "type": "bool"
        }
      ],
      "stateMutability": "view",
      "type": "function"
    },
    {
      "inputs": [],
      "name": "saleStartTime",
      "outputs": [
        {
          "internalType": "uint256",
          "name": "",
          "type": "uint256"
        }
      ],
      "stateMutability": "view",
      "type": "function"
    },
    {
      "inputs": [],
      "name": "saleStarted",
      "outputs": [
        {
          "internalType": "bool",
          "name": "",
          "type": "bool"
        }
      ],
      "stateMutability": "view",
      "type": "function"
    },
    {
      "inputs": [],
      "name": "token",
      "outputs": [
        {
          "internalType": "contract IERC20",
          "name": "",
          "type": "address"
        }
      ],
      "stateMutability": "view",
      "type": "function"
    },
    {
      "inputs": [
        {
          "internalType": "address",
          "name": "newOwner",
          "type": "address"
        }
      ],
      "name": "transferOwnership",
      "outputs": [],
      "stateMutability": "nonpayable",
      "type": "function"
    },
    {
      "inputs": [],
      "name": "treasury",
      "outputs": [
        {
          "internalType": "address",
          "name": "",
          "type": "address"
        }
      ],
      "stateMutability": "view",
      "type": "function"
    }
  ],
  "bytecode": "0x6080346100c857601f610a9138819003918201601f19168301916001600160401b038311848410176100cd5780849260409485528339810103126100c857610052602061004b836100e3565b92016100e3565b6001600081815581546001600160a01b0319808216339081179094556040519590946001600160a01b0394909385938416907f8be0079c531659141344cd1fd0a4f28419497f9722a3daafe3b4186f6b6457e09080a3168360025416176002551690600354161760035561099990816100f88239f35b600080fd5b634e487b7160e01b600052604160045260246000fd5b51906001600160a01b03821682036100c85756fe608060408181526004918236101561001657600080fd5b600092833560e01c91826301c11d961461081b575081631cbaee2d146107fd5781635c474f9e146107d957816361d027b3146107b0578163715018a6146107505781637c5e27951461072f5781638da5cb5b1461070657816399abe8f8146106e85781639b8906ae146106c1578163d0febe4c146101db578163eb91d37e146101b7578163f2fde38b146100df575063fc0c546a146100b457600080fd5b346100db57816003193601126100db5760025490516001600160a01b039091168152602090f35b5080fd5b919050346101b35760203660031901126101b3576001600160a01b038235818116939192908490036101af5761011361083d565b831561015d575050600154826bffffffffffffffffffffffff60a01b821617600155167f8be0079c531659141344cd1fd0a4f28419497f9722a3daafe3b4186f6b6457e08380a380f35b906020608492519162461bcd60e51b8352820152602660248201527f4f776e61626c653a206e6577206f776e657220697320746865207a65726f206160448201526564647265737360d01b6064820152fd5b8480fd5b8280fd5b5050346100db57816003193601126100db576020906101d4610895565b9051908152f35b919050826003193601126101b357600283541461067e576002835560055460ff8160081c1661064e5734156106205760ff8116156105e3575b5061021d610895565b67016345785d8a000081101580806105d3575b61053f575b50670de0b6b3a7640000803402903482040361052c578115610519578190049283156104e65760025483516370a0823160e01b81523381840152602092916024916001600160a01b0391859082908590829086165afa9081156104dc5789916104ab575b5087810180911161049957690a2a07efde66169c00001061045857878080803485600354165af13d15610453573d67ffffffffffffffff8111610441578751906102ec601f8201601f191688018361092b565b815289863d92013e5b1561040a57838160648a93600254169160035416895194859384926323b872dd60e01b84528984015233888401528c60448401525af19081156104005788916103c6575b5015610376575050825193845283015233917f8fafebcaf9d154343dad25669bfa277f4fbacd7ac6b0c4fed522580e040a0f339190a26001815580f35b60279060849386519362461bcd60e51b85528401528201527f546f6b656e207472616e73666572206661696c65642028436865636b20616c6c6044820152666f77616e63652960c81b6064820152fd5b90508381813d83116103f9575b6103dd818361092b565b810103126103f5575180151581036103f55738610339565b8780fd5b503d6103d3565b86513d8a823e3d90fd5b5060139060649386519362461bcd60e51b855284015282015272109390881d1c985b9cd9995c8819985a5b1959606a1b6044820152fd5b634e487b7160e01b8a5260418552838afd5b6102f5565b5060189060649386519362461bcd60e51b85528401528201527f45786365656473206d61782077616c6c6574206c696d697400000000000000006044820152fd5b634e487b7160e01b8952601184528289fd5b90508481813d83116104d5575b6104c2818361092b565b810103126104d1575138610299565b8880fd5b503d6104b8565b87513d8b823e3d90fd5b606490602084519162461bcd60e51b8352820152600d60248201526c2a37b79039b6b0b6361021272160991b6044820152fd5b634e487b7160e01b855260128452602485fd5b634e487b7160e01b855260118452602485fd5b61010061ff001960055416176005557fce4010416b0dec196298b584ceebdd43ecf89e6c03007517c3a7f4403db6c212838051428152846020820152a16105865738610235565b815162461bcd60e51b8152602081850152602160248201527f53616c652066696e6973686564202850726963652072656163686564204361706044820152602960f81b6064820152608490fd5b5060ff60055460081c1615610230565b60019060ff1916176005554282557fa78c547613f6306e7a70d1bd161c18a496cae1eeb8d4f9e58b60d69ad72ddf5860208251428152a138610214565b815162461bcd60e51b8152602081850152600860248201526729b2b7321021272160c11b6044820152606490fd5b815162461bcd60e51b8152602081850152600a60248201526914d85b1948195b99195960b21b6044820152606490fd5b906020606492519162461bcd60e51b8352820152601f60248201527f5265656e7472616e637947756172643a207265656e7472616e742063616c6c006044820152fd5b5050346100db57816003193601126100db5760209060ff60055460081c1690519015158152f35b5050346100db57816003193601126100db5760209051620151808152f35b5050346100db57816003193601126100db5760015490516001600160a01b039091168152602090f35b5050346100db57816003193601126100db57602090516509184e72a0008152f35b83346107ad57806003193601126107ad5761076961083d565b600180546001600160a01b0319811690915581906001600160a01b03167f8be0079c531659141344cd1fd0a4f28419497f9722a3daafe3b4186f6b6457e08280a380f35b80fd5b5050346100db57816003193601126100db5760035490516001600160a01b039091168152602090f35b5050346100db57816003193601126100db5760209060ff6005541690519015158152f35b9050346101b357826003193601126101b35760209250549051908152f35b8490346100db57816003193601126100db578067016345785d8a000060209252f35b6001546001600160a01b0316330361085157565b606460405162461bcd60e51b815260206004820152602060248201527f4f776e61626c653a2063616c6c6572206973206e6f7420746865206f776e65726044820152fd5b60055460ff8160081c166109145760ff16156109215760045442034281116108fe57620151809004601481116109145760ff81116108fe576509184e72a00090600182821b928304911b036108fe5767016345785d8a0000808210156108f9575090565b905090565b634e487b7160e01b600052601160045260246000fd5b5067016345785d8a000090565b6509184e72a00090565b90601f8019910116810190811067ffffffffffffffff82111761094d57604052565b634e487b7160e01b600052604160045260246000fdfea264697066735822122010b5a0ab5630900be2eb8e55916aed203d55facf5abfc31899a1e0a15b41a16b64736f6c63430008140033",
  "linkReferences": {},
  "deployedLinkReferences": {}
}