{
  "_format": "hh-sol-artifact-1",
  "contractName": "TRSToken",
  "sourceName": "contracts/TRSToken.sol",
  "abi": [
    {
      "inputs": [
        {
          "internalType": "address",
          "name": "initialOwner",
          "type": "address"
        },
        {
          "internalType": "address",
          "name": "treasury",
          "type": "address"
        }
      ],
      "stateMutability": "nonpayable",
      "type": "constructor"
    },
    {
      "inputs": [],
      "name": "InvalidShortString",
      "type": "error"
    },
    {
      "inputs": [
        {
          "internalType": "string",
          "name": "str",
          "type": "string"
        }
      ],
      "name": "StringTooLong",
      "type": "error"
    },
    {
      "anonymous": false,
      "inputs": [
        {
          "indexed": true,
          "internalType": "address",
          "name": "owner",
          "type": "address"
        },
        {
          "indexed": true,
          "internalType": "address",
          "name": "spender",
          "type": "address"
        },
        {
          "indexed": false,
          "internalType": "uint256",
          "name": "value",
          "type": "uint256"
        }
      ],
      "name": "Approval",
      "type": "event"
    },
    {
      "anonymous": false,
      "inputs": [
        {
          "indexed": true,
          "internalType": "address",
          "name": "delegator",
          "type": "address"
        },
        {
          "indexed": true,
          "internalType": "address",
          "name": "fromDelegate",
          "type": "address"
        },
        {
          "indexed": true,
          "internalType": "address",
          "name": "toDelegate",
          "type": "address"
        }
      ],
      "name": "DelegateChanged",
      "type": "event"
    },
    {
      "anonymous": false,
      "inputs": [
        {
          "indexed": true,
          "internalType": "address",
          "name": "delegate",
          "type": "address"
        },
        {
          "indexed": false,
          "internalType": "uint256",
          "name": "previousBalance",
          "type": "uint256"
        },
        {
          "indexed": false,
          "internalType": "uint256",
          "name": "newBalance",
          "type": "uint256"
        }
      ],
      "name": "DelegateVotesChanged",
      "type": "event"
    },
    {
      "anonymous": false,
      "inputs": [],
      "name": "EIP712DomainChanged",
      "type": "event"
    },
    {
      "anonymous": false,
      "inputs": [
        {
          "indexed": true,
          "internalType": "address",
          "name": "previousOwner",
          "type": "address"
        },
        {
          "indexed": true,
          "internalType": "address",
          "name": "newOwner",
          "type": "address"
        }
      ],
      "name": "OwnershipTransferred",
      "type": "event"
    },
    {
      "anonymous": false,
      "inputs": [
        {
          "indexed": false,
          "internalType": "uint256",
          "name": "id",
          "type": "uint256"
        }
      ],
      "name": "Snapshot",
      "type": "event"
    },
    {
      "anonymous": false,
      "inputs": [
        {
          "indexed": true,
          "internalType": "address",
          "name": "from",
          "type": "address"
        },
        {
          "indexed": true,
          "internalType": "address",
          "name": "to",
          "type": "address"
        },
        {
          "indexed": false,
          "internalType": "uint256",
          "name": "value",
          "type": "uint256"
        }
      ],
      "name": "Transfer",
      "type": "event"
    },
    {
      "inputs": [],
      "name": "CLOCK_MODE",
      "outputs": [
        {
          "internalType": "string",
          "name": "",
          "type": "string"
        }
      ],
      "stateMutability": "view",
      "type": "function"
    },
    {
      "inputs": [],
      "name": "DOMAIN_SEPARATOR",
      "outputs": [
        {
          "internalType": "bytes32",
          "name": "",
          "type": "bytes32"
        }
      ],
      "stateMutability": "view",
      "type": "function"
    },
    {
      "inputs": [],
      "name": "MAX_WALLET",
      "outputs": [
        {
          "internalType": "uint256",
          "name": "",
          "type": "uint256"
        }
      ],
      "stateMutability": "view",
      "type": "function"
    },
    {
      "inputs": [
        {
          "internalType": "address",
          "name": "owner",
          "type": "address"
        },
        {
          "internalType": "address",
          "name": "spender",
          "type": "address"
        }
      ],
      "name": "allowance",
      "outputs": [
        {
          "internalType": "uint256",
          "name": "",
          "type": "uint256"
        }
      ],
      "stateMutability": "view",
      "type": "function"
    },
    {
      "inputs": [
        {
          "internalType": "address",
          "name": "spender",
          "type": "address"
        },
        {
          "internalType": "uint256",
          "name": "amount",
          "type": "uint256"
        }
      ],
      "name": "approve",
      "outputs": [
        {
          "internalType": "bool",
          "name": "",
          "type": "bool"
        }
      ],
      "stateMutability": "nonpayable",
      "type": "function"
    },
    {
      "inputs": [
        {
          "internalType": "address",
          "name": "account",
          "type": "address"
        }
      ],
      "name": "balanceOf",
      "outputs": [
        {
          "internalType": "uint256",
          "name": "",
          "type": "uint256"
        }
      ],
      "stateMutability": "view",
      "type": "function"
    },
    {
      "inputs": [
        {
          "internalType": "address",
          "name": "account",
          "type": "address"
        },
        {
          "internalType": "uint256",
          "name": "snapshotId",
          "type": "uint256"
        }
      ],
      "name": "balanceOfAt",
      "outputs": [
        {
          "internalType": "uint256",
          "name": "",
          "type": "uint256"
        }
      ],
      "stateMutability": "view",
      "type": "function"
    },
    {
      "inputs": [
        {
          "internalType": "uint256",
          "name": "amount",
          "type": "uint256"
        }
      ],
      "name": "burn",
      "outputs": [],
      "stateMutability": "nonpayable",
      "type": "function"
    },
    {
      "inputs": [
        {
          "internalType": "address",
          "name": "account",
          "type": "address"
        },
        {
          "internalType": "uint256",
          "name": "amount",
          "type": "uint256"
        }
      ],
      "name": "burnFrom",
      "outputs": [],
      "stateMutability": "nonpayable",
      "type": "function"
    },
    {
      "inputs": [
        {
          "internalType": "address",
          "name": "account",
          "type": "address"
        },
        {
          "internalType": "uint32",
          "name": "pos",
          "type": "uint32"
        }
      ],
      "name": "checkpoints",
      "outputs": [
        {
          "components": [
            {
              "internalType": "uint32",
              "name": "fromBlock",
              "type": "uint32"
            },
            {
              "internalType": "uint224",
              "name": "votes",
              "type": "uint224"
            }
          ],
          "internalType": "struct ERC20Votes.Checkpoint",
          "name": "",
          "type": "tuple"
        }
      ],
      "stateMutability": "view",
      "type": "function"
    },
    {
      "inputs": [],
      "name": "clock",
      "outputs": [
        {
          "internalType": "uint48",
          "name": "",
          "type": "uint48"
        }
      ],
      "stateMutability": "view",
      "type": "function"
    },
    {
      "inputs": [],
      "name": "decimals",
      "outputs": [
        {
          "internalType": "uint8",
          "name": "",
          "type": "uint8"
        }
      ],
      "stateMutability": "view",
      "type": "function"
    },
    {
      "inputs": [
        {
          "internalType": "address",
          "name": "spender",
          "type": "address"
        },
        {
          "internalType": "uint256",
          "name": "subtractedValue",
          "type": "uint256"
        }
      ],
      "name": "decreaseAllowance",
      "outputs": [
        {
          "internalType": "bool",
          "name": "",
          "type": "bool"
        }
      ],
      "stateMutability": "nonpayable",
      "type": "function"
    },
    {
      "inputs": [
        {
          "internalType": "address",
          "name": "delegatee",
          "type": "address"
        }
      ],
      "name": "delegate",
      "outputs": [],
      "stateMutability": "nonpayable",
      "type": "function"
    },
    {
      "inputs": [
        {
          "internalType": "address",
          "name": "delegatee",
          "type": "address"
        },
        {
          "internalType": "uint256",
          "name": "nonce",
          "type": "uint256"
        },
        {
          "internalType": "uint256",
          "name": "expiry",
          "type": "uint256"
        },
        {
          "internalType": "uint8",
          "name": "v",
          "type": "uint8"
        },
        {
          "internalType": "bytes32",
          "name": "r",
          "type": "bytes32"
        },
        {
          "internalType": "bytes32",
          "name": "s",
          "type": "bytes32"
        }
      ],
      "name": "delegateBySig",
      "outputs": [],
      "stateMutability": "nonpayable",
      "type": "function"
    },
    {
      "inputs": [
        {
          "internalType": "address",
          "name": "account",
          "type": "address"
        }
      ],
      "name": "delegates",
      "outputs": [
        {
          "internalType": "address",
          "name": "",
          "type": "address"
        }
      ],
      "stateMutability": "view",
      "type": "function"
    },
    {
      "inputs": [],
      "name": "eip712Domain",
      "outputs": [
        {
          "internalType": "bytes1",
          "name": "fields",
          "type": "bytes1"
        },
        {
          "internalType": "string",
          "name": "name",
          "type": "string"
        },
        {
          "internalType": "string",
          "name": "version",
          "type": "string"
        },
        {
          "internalType": "uint256",
          "name": "chainId",
          "type": "uint256"
        },
        {
          "internalType": "address",
          "name": "verifyingContract",
          "type": "address"
        },
        {
          "internalType": "bytes32",
          "name": "salt",
          "type": "bytes32"
        },
        {
          "internalType": "uint256[]",
          "name": "extensions",
          "type": "uint256[]"
        }
      ],
      "stateMutability": "view",
      "type": "function"
    },
    {
      "inputs": [
        {
          "internalType": "uint256",
          "name": "timepoint",
          "type": "uint256"
        }
      ],
      "name": "getPastTotalSupply",
      "outputs": [
        {
          "internalType": "uint256",
          "name": "",
          "type": "uint256"
        }
      ],
      "stateMutability": "view",
      "type": "function"
    },
    {
      "inputs": [
        {
          "internalType": "address",
          "name": "account",
          "type": "address"
        },
        {
          "internalType": "uint256",
          "name": "timepoint",
          "type": "uint256"
        }
      ],
      "name": "getPastVotes",
      "outputs": [
        {
          "internalType": "uint256",
          "name": "",
          "type": "uint256"
        }
      ],
      "stateMutability": "view",
      "type": "function"
    },
    {
      "inputs": [
        {
          "internalType": "address",
          "name": "account",
          "type": "address"
        }
      ],
      "name": "getVotes",
      "outputs": [
        {
          "internalType": "uint256",
          "name": "",
          "type": "uint256"
        }
      ],
      "stateMutability": "view",
      "type": "function"
    },
    {
      "inputs": [
        {
          "internalType": "address",
          "name": "spender",
          "type": "address"
        },
        {
          "internalType": "uint256",
          "name": "addedValue",
          "type": "uint256"
        }
      ],
      "name": "increaseAllowance",
      "outputs": [
        {
          "internalType": "bool",
          "name": "",
          "type": "bool"
        }
      ],
      "stateMutability": "nonpayable",
      "type": "function"
    },
    {
      "inputs": [
        {
          "internalType": "address",
          "name": "",
          "type": "address"
        }
      ],
      "name": "isExcludedFromMaxWallet",
      "outputs": [
        {
          "internalType": "bool",
          "name": "",
          "type": "bool"
        }
      ],
      "stateMutability": "view",
      "type": "function"
    },
    {
      "inputs": [],
      "name": "name",
      "outputs": [
        {
          "internalType": "string",
          "name": "",
          "type": "string"
        }
      ],
      "stateMutability": "view",
      "type": "function"
    },
    {
      "inputs": [
        {
          "internalType": "address",
          "name": "owner",
          "type": "address"
        }
      ],
      "name": "nonces",
      "outputs": [
        {
          "internalType": "uint256",
          "name": "",
          "type": "uint256"
        }
      ],
      "stateMutability": "view",
      "type": "function"
    },
    {
      "inputs": [
        {
          "internalType": "address",
          "name": "account",
          "type": "address"
        }
      ],
      "name": "numCheckpoints",
      "outputs": [
        {
          "internalType": "uint32",
          "name": "",
          "type": "uint32"
        }
      ],
      "stateMutability": "view",
      "type": "function"
    },
    {
      "inputs": [],
      "name": "owner",
      "outputs": [
        {
          "internalType": "address",
          "name": "",
          "type": "address"
        }
      ],
      "stateMutability": "view",
      "type": "function"
    },
    {
      "inputs": [
        {
          "internalType": "address",
          "name": "owner",
          "type": "address"
        },
        {
          "internalType": "address",
          "name": "spender",
          "type": "address"
        },
        {
          "internalType": "uint256",
          "name": "value",
          "type": "uint256"
        },
        {
          "internalType": "uint256",
          "name": "deadline",
          "type": "uint256"
        },
        {
          "internalType": "uint8",
          "name": "v",
          "type": "uint8"
        },
        {
          "internalType": "bytes32",
          "name": "r",
          "type": "bytes32"
        },
        {
          "internalType": "bytes32",
          "name": "s",
          "type": "bytes32"
        }
      ],
      "name": "permit",
      "outputs": [],
      "stateMutability": "nonpayable",
      "type": "function"
    },
    {
      "inputs": [],
      "name": "renounceOwnership",
      "outputs": [],
      "stateMutability": "nonpayable",
      "type": "function"
    },
    {
      "inputs": [
        {
          "internalType": "address",
          "name": "account",
          "type": "address"
        },
        {
          "internalType": "bool",
          "name": "excluded",
          "type": "bool"
        }
      ],
      "name": "setExcludedFromMaxWallet",
      "outputs": [],
      "stateMutability": "nonpayable",
      "type": "function"
    },
    {
      "inputs": [],
      "name": "snapshot",
      "outputs": [
        {
          "internalType": "uint256",
          "name": "",
          "type": "uint256"
        }
      ],
      "stateMutability": "nonpayable",
      "type": "function"
    },
    {
      "inputs": [],
      "name": "symbol",
      "outputs": [
        {
          "internalType": "string",
          "name": "",
          "type": "string"
        }
      ],
      "stateMutability": "view",
      "type": "function"
    },
    {
      "inputs": [],
      "name": "totalSupply",
      "outputs": [
        {
          "internalType": "uint256",
          "name": "",
          "type": "uint256"
        }
      ],
      "stateMutability": "view",
      "type": "function"
    },
    {
      "inputs": [
        {
          "internalType": "uint256",
          "name": "snapshotId",
          "type": "uint256"
        }
      ],
      "name": "totalSupplyAt",
      "outputs": [
        {
          "internalType": "uint256",
          "name": "",
          "type": "uint256"
        }
      ],
      "stateMutability": "view",
      "type": "function"
    },
    {
      "inputs": [
        {
          "internalType": "address",
          "name": "to",
          "type": "address"
        },
        {
          "internalType": "uint256",
          "name": "amount",
          "type": "uint256"
        }
      ],
      "name": "transfer",
      "outputs": [
        {
          "internalType": "bool",
          "name": "",
          "type": "bool"
        }
      ],
      "stateMutability": "nonpayable",
      "type": "function"
    },
    {
      "inputs": [
        {
          "internalType": "address",
          "name": "from",
          "type": "address"
        },
        {
          "internalType": "address",
          "name": "to",
          "type": "address"
        },
        {
          "internalType": "uint256",
          "name": "amount",
          "type": "uint256"
        }
      ],
      "name": "transferFrom",
      "outputs": [
        {
          "internalType": "bool",
          "name": "",
          "type": "bool"
        }
      ],
      "stateMutability": "nonpayable",
      "type": "function"
    },
    {
      "inputs": [
        {
          "internalType": "address",
          "name": "newOwner",
          "type": "address"
        }
      ],
      "name": "transferOwnership",
      "outputs": [],
      "stateMutability": "nonpayable",
      "type": "function"
    }
  ],
  "bytecode": "0x61016080604052346200009d5760409062004530908138039182916200002583620000b8565b39126200009d576200004b6200003a62000111565b6200004462000129565b906200022d565b604051612ede90816200163282396080518161250c015260a051816125c7015260c051816124d6015260e0518161255b0152610100518161258101526101205181610b3101526101405181610b5a0152f35b600080fd5b634e487b7160e01b600052604160045260246000fd5b601f01601f1916610160908101906001600160401b03821190821017620000de57604052565b620000a2565b604081019081106001600160401b03821117620000de57604052565b604051906200010f82620000e4565b565b61016051906001600160a01b03821682036200009d57565b61018051906001600160a01b03821682036200009d57565b604051906200015082620000e4565b60038252565b604051906200016582620000e4565b60018252565b604051906200017a82620000e4565b60118252702a343934bb32a932b0b636b9aa37b5b2b760791b6020830152565b15620001a257565b60405162461bcd60e51b815260206004820152600d60248201526c24b73b30b634b21037bbb732b960991b6044820152606490fd5b15620001df57565b60405162461bcd60e51b815260206004820152601060248201526f496e76616c696420747265617375727960801b6044820152606490fd5b634e487b7160e01b600052601160045260246000fd5b9190916200023a6200016b565b92620002456200016b565b936200025062000141565b906020906254525360e81b828401526200026962000156565b9180830193603160f81b8552885160018060401b038111620000de576200029d816200029760035462000473565b620004b0565b82601f8211600114620003d7579181620002e592620003c59998979695946200010f9c9d600092620003cb575b50508160011b916000199060031b1c19161760035562000614565b620002f08262000810565b61012052620002ff8362000923565b61014052815191012060e052519020610100524660a0526200032062000ad4565b6080523060c0526200033233620007c7565b620003576001600160a01b036200034d85821615156200019a565b82161515620001d7565b6001600160a01b038316600090815260116020526040902062000382905b805460ff19166001179055565b6001600160a01b0381166000908152601160205260409020620003a59062000375565b306000908152601160205260409020620003bf9062000375565b62000ba6565b62000707565b015190503880620002ca565b6003600052601f1982169a7fc2575a0e9e593c00f959f8c92f12db2869c3395a3b0502d05e2516446f71f85b9b60005b8181106200045b5750926200010f9b9c620003c59a99989796959360019383620002e5971062000441575b505050811b0160035562000614565b015160001960f88460031b161c1916905538808062000432565b838301518e556001909d019c92860192860162000407565b90600182811c92168015620004a5575b60208310146200048f57565b634e487b7160e01b600052602260045260246000fd5b91607f169162000483565b601f8111620004bd575050565b6000906003825260208220906020601f850160051c83019410620004fe575b601f0160051c01915b828110620004f257505050565b818155600101620004e5565b9092508290620004dc565b601f811162000516575050565b6000906004825260208220906020601f850160051c8301941062000557575b601f0160051c01915b8281106200054b57505050565b8181556001016200053e565b909250829062000535565b601f81116200056f575050565b6000906005825260208220906020601f850160051c83019410620005b0575b601f0160051c01915b828110620005a457505050565b81815560010162000597565b90925082906200058e565b601f8111620005c8575050565b6000906006825260208220906020601f850160051c8301941062000609575b601f0160051c01915b828110620005fd57505050565b818155600101620005f0565b9092508290620005e7565b80519091906001600160401b038111620000de5762000640816200063a60045462000473565b62000509565b602080601f83116001146200067f575081929360009262000673575b50508160011b916000199060031b1c191617600455565b0151905038806200065c565b6004600052601f198316949091907f8a35acfbc15ff81a39ae7d344fd709f28e8600b4aa8c65c6b64bfe7fe36bd19b926000905b878210620006ee575050836001959610620006d4575b505050811b01600455565b015160001960f88460031b161c19169055388080620006c9565b80600185968294968601518155019501930190620006b3565b6010546001600160a01b03908116330362000783578116156200072f576200010f90620007c7565b60405162461bcd60e51b815260206004820152602660248201527f4f776e61626c653a206e6577206f776e657220697320746865207a65726f206160448201526564647265737360d01b6064820152608490fd5b606460405162461bcd60e51b815260206004820152602060248201527f4f776e61626c653a2063616c6c6572206973206e6f7420746865206f776e65726044820152fd5b601080546001600160a01b039283166001600160a01b0319821681179092559091167f8be0079c531659141344cd1fd0a4f28419497f9722a3daafe3b4186f6b6457e0600080a3565b908151602080821060001462000831575050906200082e9062000a57565b90565b6001600160401b038211620000de5762000858826200085260055462000473565b62000562565b80601f83116001146200089857508192936000926200088c575b50508160011b916000199060031b1c19161760055560ff90565b01519050388062000872565b6005600052601f198316949091907f036b6384b5eca791c62761152d0c79bb0604c104a5fb6f4eb0703f3154bb3db0926000905b8782106200090a575050836001959610620008f0575b505050811b0160055560ff90565b015160001960f88460031b161c19169055388080620008e2565b80600185968294968601518155019501930190620008cc565b908151602080821060001462000941575050906200082e9062000a57565b6001600160401b038211620000de5762000968826200096260065462000473565b620005bb565b80601f8311600114620009a857508192936000926200099c575b50508160011b916000199060031b1c19161760065560ff90565b01519050388062000982565b6006600052601f198316949091907ff652222313e28459528d920b65115c16c04f3efc82aaedc97be59f3f377c0d3f926000905b87821062000a1a57505083600195961062000a00575b505050811b0160065560ff90565b015160001960f88460031b161c19169055388080620009f2565b80600185968294968601518155019501930190620009dc565b60208151910151906020811062000a48575090565b6000199060200360031b1b1690565b601f81511162000a725762000a6c8162000a33565b90511790565b6040519063305a27a960e01b82528160208060048301528251908160248401526000935b82851062000aba575050604492506000838284010152601f80199101168101030190fd5b848101820151868601604401529381019385935062000a96565b60e051610100516040519060208201927f8b73c3c69bb8fe3d512ecc4cf759cc79239f7b179b0ffacaa9a75d522b39400f8452604083015260608201524660808201523060a082015260a0815260c0810181811060018060401b03821117620000de5760405251902090565b1562000b4857565b60405162461bcd60e51b815260206004820152603060248201527f4552433230566f7465733a20746f74616c20737570706c79207269736b73206f60448201526f766572666c6f77696e6720766f74657360801b6064820152608490fd5b6001600160a01b03811690811562000d8c578162000cbf92600052600c60205260406000206000602052604060002054600f548062000be584620014dc565b1062000d69575b50505062000bf9620013d8565b6001600160a01b038216600090815260116020526040902062000c279062000c23905b5460ff1690565b1590565b8062000d2a575b62000ce5575b62000c4a62000c4560025462000dd1565b600255565b6001600160a01b03821660009081526020819052604090206b033b2e3c9fd0803ce8000000815401905560007fddf252ad1be2c89b69c2b068fc378daa952ba7f163c4a11628f55a4df523b3ef6040518062000cb681906b033b2e3c9fd0803ce8000000602083019252565b0390a362001503565b60025462000cd7906001600160e01b03101562000b40565b62000ce162000f42565b5050565b62000d24690a2a07efde66169c000062000d1c62000d158560018060a01b03166000526000602052604060002090565b5462000dd1565b11156200138b565b62000c34565b5060008052601160205262000d6362000c237f4ad3b33220dddc71b994a52d72c06b10862965f7d926534c05c00fb7e819e7b762000c1c565b62000c2e565b8262000d7c60019262000d83956200147f565b016200147f565b38808062000bec565b60405162461bcd60e51b815260206004820152601f60248201527f45524332303a206d696e7420746f20746865207a65726f2061646472657373006044820152606490fd5b906b033b2e3c9fd0803ce8000000820180921162000deb57565b62000217565b604080519192919081016001600160401b03811182821017620000de57604052602081935463ffffffff81168352811c910152565b600d5481101562000e4257600d60005260206000200190600090565b634e487b7160e01b600052603260045260246000fd5b805482101562000e425760005260206000200190600090565b600b549068010000000000000000821015620000de576001820180600b5582101562000e4257600b600052805160209182015190911b63ffffffff191663ffffffff91909116177f0175b7a638427703f0dbe7bb9bbf987a2551717b34e79f33b5b1008d1fa01db990910155565b805468010000000000000000811015620000de5762000f049160018201815562000e58565b62000f2c57815160209283015190921b63ffffffff191663ffffffff92909216919091179055565b634e487b7160e01b600052600060045260246000fd5b600b54908115908115620010895762000f5a62000100565b6000815260006020820152925b602084015162000f87906001600160e01b03165b6001600160e01b031690565b9362000f9385620015fc565b9315908162001062575b501562000ffa576200010f9062000fe362000fb88562001253565b600b600052917f0175b7a638427703f0dbe7bb9bbf987a2551717b34e79f33b5b1008d1fa01db80190565b9063ffffffff82549181199060201b169116179055565b506200010f620010236200101d6200101243620012bd565b65ffffffffffff1690565b62001325565b6200105c620010328562001253565b6200104c6200104062000100565b63ffffffff9094168452565b6001600160e01b03166020830152565b62000e71565b5163ffffffff16905063ffffffff6200107f6200101243620012bd565b9116143862000f9d565b600b600052620010c17f0175b7a638427703f0dbe7bb9bbf987a2551717b34e79f33b5b1008d1fa01db8840162000df1565b62000df1565b9262000f67565b8054918215918215620011c857620010df62000100565b6000815260006020820152935b602085015162001105906001600160e01b031662000f7b565b94620011118662001616565b94159081620011a1575b5015620011485762000fe36200010f92620011368662001253565b92600019019060005260206000200190565b506200010f90620011616200101d6200101243620012bd565b906200119b620011718662001253565b6200118b6200117f62000100565b63ffffffff9095168552565b6001600160e01b03166020840152565b62000edf565b5163ffffffff16905063ffffffff620011be6200101243620012bd565b911614386200111b565b620011e2620010bb60001986018360005260206000200190565b93620010ec565b805491821591821562001232576200120062000100565b6000815260006020820152935b602085015162001226906001600160e01b031662000f7b565b946200111186620015fc565b6200124c620010bb60001986018360005260206000200190565b936200120d565b6001600160e01b039081811162001268571690565b60405162461bcd60e51b815260206004820152602760248201527f53616665436173743a2076616c756520646f65736e27742066697420696e20326044820152663234206269747360c81b6064820152608490fd5b65ffffffffffff90818111620012d1571690565b60405162461bcd60e51b815260206004820152602660248201527f53616665436173743a2076616c756520646f65736e27742066697420696e203460448201526538206269747360d01b6064820152608490fd5b63ffffffff9081811162001337571690565b60405162461bcd60e51b815260206004820152602660248201527f53616665436173743a2076616c756520646f65736e27742066697420696e203360448201526532206269747360d01b6064820152608490fd5b156200139357565b60405162461bcd60e51b815260206004820152601860248201527f45786365656473206d61782077616c6c6574206c696d697400000000000000006044820152606490fd5b600254600f5480620013e9620014ab565b10620013f3575050565b600d54680100000000000000009182821015620000de5762001420826001620014399401600d5562000e26565b90919082549060031b91821b91600019901b1916179055565b600e5490811015620000de576001810180600e5581101562000e4257600e6000527fbb7b4a454dc3493923482f07822329ed19e8244eff582cc204f8554c3620c3fd0155565b9081549168010000000000000000831015620000de5782620014209160016200010f9501815562000e58565b600d5480620014ba5750600090565b600019810190811162000deb57620014d29062000e26565b90549060031b1c90565b805480620014eb575050600090565b600019810190811162000deb57620014d29162000e58565b60096020527fec8156718a8372b1db44bb411437d0870f3e3790d4a08526d024ce1b0b668f6b546001600160a01b0391821660009081526040812054831692909116908183141580620015f3575b6200155b57505050565b81620015b4575b5050806200156d5750565b6001600160a01b0381166000908152600a602052604090206000805160206200451083398151915290620015a190620011e9565b60408051928352602083019190915290a2565b620015da60408284600080516020620045108339815191529452600a60205220620010c8565b60408051928352602083019190915290a2388062001562565b50600162001551565b6b033b2e3c9fd0803ce8000000810180911162000deb5790565b6b033b2e3c9fd0803ce7ffffff19810190811162000deb579056fe6080604052600436101561001257600080fd5b60003560e01c806306fdde0314610257578063095ea7b31461025257806318160ddd1461024d57806323b872dd14610248578063313ce567146102435780633644e5151461023e57806339509351146102395780633a46b1a814610234578063412201041461022f57806342966c681461022a5780634bf5d7e9146102255780634ee2cd7e14610220578063587cde1e1461021b5780635c19a95c146102165780636dd3d39f146102115780636fcfff451461020c57806370a0823114610207578063715018a61461020257806379cc6790146101fd5780637ecebe00146101f857806384b0196e146101f35780638da5cb5b146101ee5780638e539e8c146101e957806391ddadf4146101e457806395d89b41146101df5780639711715a146101da578063981b24d0146101d55780639ab24eb0146101d0578063a457c2d7146101cb578063a9059cbb146101c6578063c3cda520146101c1578063d505accf146101bc578063dd62ed3e146101b7578063df7787a4146101b2578063f1127ed8146101ad5763f2fde38b146101a857600080fd5b6113c8565b611341565b61131c565b6112c4565b61117e565b611053565b61100d565b610f53565b610ef1565b610eb9565b610e63565b610dbc565b610d90565b610c37565b610c0e565b610b16565b610adc565b610a0d565b6109af565b610975565b61092d565b6108ee565b6108cc565b610891565b610834565b610782565b61068b565b610635565b6104e4565b61048c565b610469565b61044d565b610415565b6103f7565b6103c6565b6102b0565b919082519283825260005b848110610288575050826000602080949584010152601f8019910116010190565b602081830181015184830182015201610267565b9060206102ad92818152019061025c565b90565b34610395576000806003193601126103925760405190806003546102d3816114e9565b80855291600191808316908115610368575060011461030d575b610309856102fd81870382611592565b6040519182918261029c565b0390f35b9250600383527fc2575a0e9e593c00f959f8c92f12db2869c3395a3b0502d05e2516446f71f85b5b8284106103505750505081016020016102fd826103096102ed565b80546020858701810191909152909301928101610335565b869550610309969350602092506102fd94915060ff191682840152151560051b82010192936102ed565b80fd5b600080fd5b600435906001600160a01b038216820361039557565b602435906001600160a01b038216820361039557565b34610395576040366003190112610395576103ec6103e261039a565b60243590336117b1565b602060405160018152f35b34610395576000366003190112610395576020600254604051908152f35b34610395576060366003190112610395576103ec61043161039a565b6104396103b0565b604435916104488333836118e1565b611698565b3461039557600036600319011261039557602060405160128152f35b346103955760003660031901126103955760206104846124d3565b604051908152f35b34610395576040366003190112610395576104a561039a565b3360009081526001602090815260408083206001600160a01b038516845290915290205460243581018091116104df576103ec91336117b1565b6115b4565b34610395576040366003190112610395576104fd61039a565b6024359061051c65ffffffffffff610514436129b6565b168310611b9d565b6001600160a01b03166000908152600a60205260408120805492909183600581116105e4575b50905b8382106105935750508161056c575050602060005b6040516001600160e01b039091168152f35b61058761058e91602093600019019060005260206000200190565b5460201c90565b61055a565b909261059f81856127e6565b908263ffffffff6105c46105ba858860005260206000200190565b5463ffffffff1690565b1611156105d45750925b90610545565b93506105df906115ca565b6105ce565b806105f46105fa929693966127fb565b90611bf8565b908263ffffffff6106156105ba858860005260206000200190565b1611156106255750925b38610542565b9350610630906115ca565b61061f565b346103955760403660031901126103955761064e61039a565b6024359081151580920361039557610664611491565b60018060a01b0316600052601160205260406000209060ff80198354169116179055600080f35b3461039557602036600319011261039557600435331561073357610731906106b233612ace565b3360009081526020819052604090208190546106d082821015612e37565b33600090815260208190526040902091900390556106f18160025403600255565b60405181815260009033907fddf252ad1be2c89b69c2b068fc378daa952ba7f163c4a11628f55a4df523b3ef90602090a361072c8133612db7565b611fa1565b005b60405162461bcd60e51b815260206004820152602160248201527f45524332303a206275726e2066726f6d20746865207a65726f206164647265736044820152607360f81b6064820152608490fd5b34610395576000366003190112610395574365ffffffffffff6107a4436129b6565b16036107ef576103096040516107b981611539565b601d81527f6d6f64653d626c6f636b6e756d6265722666726f6d3d64656661756c7400000060208201526040519182918261029c565b60405162461bcd60e51b815260206004820152601d60248201527f4552433230566f7465733a2062726f6b656e20636c6f636b206d6f64650000006044820152606490fd5b346103955760403660031901126103955760206001600160a01b0361085761039a565b166000818152600c835261087060408220602435611b32565b929015610881575050604051908152f35b6040925081528083522054610484565b346103955760203660031901126103955760206001600160a01b03806108b561039a565b166000526009825260406000205416604051908152f35b34610395576020366003190112610395576107316108e861039a565b33611c51565b34610395576020366003190112610395576001600160a01b0361090f61039a565b166000526011602052602060ff604060002054166040519015158152f35b34610395576020366003190112610395576001600160a01b0361094e61039a565b16600052600a6020526020610967604060002054612a1d565b63ffffffff60405191168152f35b34610395576020366003190112610395576001600160a01b0361099661039a565b1660005260006020526020604060002054604051908152f35b3461039557600080600319360112610392576109c9611491565b601080546001600160a01b0319811690915581906001600160a01b03167f8be0079c531659141344cd1fd0a4f28419497f9722a3daafe3b4186f6b6457e08280a380f35b3461039557604036600319011261039557610a2661039a565b602435610a348133846118e1565b6001600160a01b038216918215610733578181600061073195610a5961072c95612ace565b6001600160a01b0383166000908152602081905260409020849054610a8082821015612e37565b03610a9d8460018060a01b03166000526000602052604060002090565b55610aab8460025403600255565b6040518481527fddf252ad1be2c89b69c2b068fc378daa952ba7f163c4a11628f55a4df523b3ef90602090a3612db7565b34610395576020366003190112610395576001600160a01b03610afd61039a565b1660005260076020526020604060002054604051908152f35b346103955760008060031936011261039257610bc090610b557f0000000000000000000000000000000000000000000000000000000000000000612613565b610b7e7f000000000000000000000000000000000000000000000000000000000000000061270c565b9160405191610b8c8361155a565b818352604051948594600f60f81b8652610bb260209360e08589015260e088019061025c565b90868203604088015261025c565b904660608601523060808601528260a086015284820360c08601528080855193848152019401925b828110610bf757505050500390f35b835185528695509381019392810192600101610be8565b34610395576000366003190112610395576010546040516001600160a01b039091168152602090f35b3461039557602036600319011261039557600435610c6665ffffffffffff610c5e436129b6565b168210611b9d565b600b549060008260058111610d29575b50905b828210610cc6578280610c93575060405160008152602090f35b600b60005260209061058e907f0175b7a638427703f0dbe7bb9bbf987a2551717b34e79f33b5b1008d1fa01db801610587565b9091610cd281846127e6565b600b600052908263ffffffff610d097f0175b7a638427703f0dbe7bb9bbf987a2551717b34e79f33b5b1008d1fa01db985016105ba565b161115610d195750915b90610c79565b9250610d24906115ca565b610d13565b806105f4610d39929593956127fb565b600b600052908263ffffffff610d707f0175b7a638427703f0dbe7bb9bbf987a2551717b34e79f33b5b1008d1fa01db985016105ba565b161115610d805750915b38610c76565b9250610d8b906115ca565b610d7a565b34610395576000366003190112610395576020610dac436129b6565b65ffffffffffff60405191168152f35b3461039557600080600319360112610392576040519080600454610ddf816114e9565b808552916001918083169081156103685750600114610e0857610309856102fd81870382611592565b9250600483527f8a35acfbc15ff81a39ae7d344fd709f28e8600b4aa8c65c6b64bfe7fe36bd19b5b828410610e4b5750505081016020016102fd826103096102ed565b80546020858701810191909152909301928101610e30565b3461039557600036600319011261039557610e7c611491565b60206001600f540180600f557f8030e83b04d87bef53480e26263266d6ca66863aa8506aca6f2559d18aa1cb6782604051838152a1604051908152f35b3461039557602036600319011261039557610ed5600435611aae565b9015610ee657602090604051908152f35b506020600254610484565b34610395576020366003190112610395576001600160a01b03610f1261039a565b16600052600a602052604060002080548015600014610f3957505060405160008152602090f35b602091610f4a916000190190611a96565b5054811c61055a565b3461039557604036600319011261039557610f6c61039a565b60243590336000526001602052610f998160406000209060018060a01b0316600052602052604060002090565b5491808310610fba57610fae920390336117b1565b60405160018152602090f35b60405162461bcd60e51b815260206004820152602560248201527f45524332303a2064656372656173656420616c6c6f77616e63652062656c6f77604482015264207a65726f60d81b6064820152608490fd5b34610395576040366003190112610395576103ec61102961039a565b6024359033611698565b6064359060ff8216820361039557565b6084359060ff8216820361039557565b346103955760c03660031901126103955761106c61039a565b6044359060243561107b611033565b928042116111395761110b6111349161073195604051906110f3826110e56020820195898b8860609194939260808201957fe48329057bfd03d55e49b547132e39cffd9c1820ad7b9d4c5307691425d15adf835260018060a01b0316602083015260408201520152565b03601f198101845283611592565b61110660a43593608435935190206125ed565b6122ed565b6001600160a01b0381166000908152600760205260409020805460018101909155909214611c05565b611c51565b60405162461bcd60e51b815260206004820152601d60248201527f4552433230566f7465733a207369676e617475726520657870697265640000006044820152606490fd5b346103955760e03660031901126103955761119761039a565b61119f6103b0565b60443590606435926111af611043565b9380421161127f5761126761127a916110e5610731976112546111ed8760018060a01b03166000526007602052604060002090815491600183019055565b604080517f6e71edae12b1b97f4d1f60370fef10105fa2faae0126114a169c64845d6126c9602082019081526001600160a01b03808c1693830193909352918b166060820152608081018c905260a081019290925260c082019590955292839060e0820190565b61110660c4359360a435935190206125ed565b6001600160a01b0383811691161461197a565b6117b1565b60405162461bcd60e51b815260206004820152601d60248201527f45524332305065726d69743a206578706972656420646561646c696e650000006044820152606490fd5b346103955760403660031901126103955760206113136112e261039a565b6112ea6103b0565b6001600160a01b0391821660009081526001855260408082209290931681526020919091522090565b54604051908152f35b34610395576000366003190112610395576020604051690a2a07efde66169c00008152f35b346103955760403660031901126103955761135a61039a565b63ffffffff6024358181168103610395576113a46113aa9160409460006020875161138481611539565b82815201526001600160a01b03166000908152600a602052859020611a96565b50611b7b565b8251815190921682526020908101516001600160e01b031690820152f35b34610395576020366003190112610395576113e161039a565b6113e9611491565b6001600160a01b0390811690811561143d57601054826bffffffffffffffffffffffff60a01b821617601055167f8be0079c531659141344cd1fd0a4f28419497f9722a3daafe3b4186f6b6457e0600080a3005b60405162461bcd60e51b815260206004820152602660248201527f4f776e61626c653a206e6577206f776e657220697320746865207a65726f206160448201526564647265737360d01b6064820152608490fd5b6010546001600160a01b031633036114a557565b606460405162461bcd60e51b815260206004820152602060248201527f4f776e61626c653a2063616c6c6572206973206e6f7420746865206f776e65726044820152fd5b90600182811c92168015611519575b602083101461150357565b634e487b7160e01b600052602260045260246000fd5b91607f16916114f8565b634e487b7160e01b600052604160045260246000fd5b6040810190811067ffffffffffffffff82111761155557604052565b611523565b6020810190811067ffffffffffffffff82111761155557604052565b60c0810190811067ffffffffffffffff82111761155557604052565b90601f8019910116810190811067ffffffffffffffff82111761155557604052565b634e487b7160e01b600052601160045260246000fd5b90600182018092116104df57565b919082018092116104df57565b156115ec57565b60405162461bcd60e51b815260206004820152602360248201527f45524332303a207472616e7366657220746f20746865207a65726f206164647260448201526265737360e81b6064820152608490fd5b1561164457565b60405162461bcd60e51b815260206004820152602660248201527f45524332303a207472616e7366657220616d6f756e7420657863656564732062604482015265616c616e636560d01b6064820152608490fd5b6001600160a01b03929190838116801561175e5761175c948316906116be8215156115e5565b6116c9858585612b77565b6001600160a01b03831660009081526020819052604090208590546116f08282101561163d565b0361170d8460018060a01b03166000526000602052604060002090565b556001600160a01b0384166000908152602081815260409182902080548801905590518681527fddf252ad1be2c89b69c2b068fc378daa952ba7f163c4a11628f55a4df523b3ef9190a3612e05565b565b60405162461bcd60e51b815260206004820152602560248201527f45524332303a207472616e736665722066726f6d20746865207a65726f206164604482015264647265737360d81b6064820152608490fd5b6001600160a01b038082169291908315611890578216938415611840578061182a7f8c5be1e5ebec7d5bd14f71427d1e84f3dd0314c0f7b2291e5b200ac8c7c3b9259461181361183b9560018060a01b03166000526001602052604060002090565b9060018060a01b0316600052602052604060002090565b556040519081529081906020820190565b0390a3565b60405162461bcd60e51b815260206004820152602260248201527f45524332303a20617070726f766520746f20746865207a65726f206164647265604482015261737360f01b6064820152608490fd5b60405162461bcd60e51b8152602060048201526024808201527f45524332303a20617070726f76652066726f6d20746865207a65726f206164646044820152637265737360e01b6064820152608490fd5b6001600160a01b03808216600090815260016020908152604080832093861683529290522090919054926001840161191a575b50505050565b8084106119355761192c9303916117b1565b38808080611914565b60405162461bcd60e51b815260206004820152601d60248201527f45524332303a20696e73756666696369656e7420616c6c6f77616e63650000006044820152606490fd5b1561198157565b60405162461bcd60e51b815260206004820152601e60248201527f45524332305065726d69743a20696e76616c6964207369676e617475726500006044820152606490fd5b156119cd57565b60405162461bcd60e51b815260206004820152601d60248201527f4552433230536e617073686f743a206e6f6e6578697374656e742069640000006044820152606490fd5b600e54811015611a4957600e6000527fbb7b4a454dc3493923482f07822329ed19e8244eff582cc204f8554c3620c3fd0190600090565b634e487b7160e01b600052603260045260246000fd5b600d54811015611a4957600d6000527fd7b6990105719101dabeb77144f2a3385c8033acd3af97e9423a695e81ad1eb50190600090565b8054821015611a495760005260206000200190600090565b8015611af457611acb90611ac6600f548211156119c6565b61218b565b600d548103611add5750600090600090565b611ae690611a12565b90549060031b1c9060019190565b60405162461bcd60e51b815260206004820152601660248201527504552433230536e617073686f743a20696420697320360541b6044820152606490fd5b8015611af457611b5090611b4a600f548211156119c6565b8261225e565b81548103611b62575050600090600090565b6001611ae69201611a96565b6040519061175c82611539565b90604051611b8881611539565b602081935463ffffffff81168352811c910152565b15611ba457565b60405162461bcd60e51b815260206004820152601960248201527f4552433230566f7465733a20667574757265206c6f6f6b7570000000000000006044820152606490fd5b6000198101919082116104df57565b919082039182116104df57565b15611c0c57565b60405162461bcd60e51b815260206004820152601960248201527f4552433230566f7465733a20696e76616c6964206e6f6e6365000000000000006044820152606490fd5b61175c9160018060a01b038092166000928184526009602052806040852054168092856020527f3134e8a2e6d97e929a7e54011ea5485d7d196dd5f0ba4d4ef95803e8e3fc257f60408720549660096020526040812094871694856bffffffffffffffffffffffff60a01b82541617905580a45b6001600160a01b03808316939291168084141580611ed7575b611ce85750505050565b80611d56575b5082611cfb575b80611914565b6001600160a01b03166000908152600a602052604090207fdec2bacdd2f05b59de34da9b523dff8be42e5e38e818c82fdb0bae774387a72491611d3d916120d2565b60408051928352602083019190915290a2388080611cf5565b80600052600a6020527fdec2bacdd2f05b59de34da9b523dff8be42e5e38e818c82fdb0bae774387a7246040600020805480159182600014611eb457611d9a611b6e565b6000815260006020820152915b6020830151611dc6906001600160e01b03165b6001600160e01b031690565b92611dd18985612e8e565b94159081611e91575b5015611e2f57611e02611e1992611df08661294d565b92600019019060005260206000200190565b9063ffffffff82549181199060201b169116179055565b604080519182526020820192909252a238611cee565b50611e8c90611e53611e4e611e43436129b6565b65ffffffffffff1690565b612a1d565b90611e87611e608661294d565b611e77611e6b611b6e565b63ffffffff9095168552565b6001600160e01b03166020840152565b611f47565b611e19565b5163ffffffff16905063ffffffff611eab611e43436129b6565b91161438611dda565b611ed1611ecc60001984018360005260206000200190565b611b7b565b91611da7565b50821515611cde565b600b5490600160401b821015611555576001820180600b55821015611a4957600b600052805160209182015190911b63ffffffff191663ffffffff91909116177f0175b7a638427703f0dbe7bb9bbf987a2551717b34e79f33b5b1008d1fa01db990910155565b8054600160401b81101561155557611f6491600182018155611a96565b611f8b57815160209283015190921b63ffffffff191663ffffffff92909216919091179055565b634e487b7160e01b600052600060045260246000fd5b600b549091811591821561209d57611fb7611b6e565b60008152600060208201525b6020810151611fe590611fde906001600160e01b0316611dba565b9586612e8e565b9315908161207a575b501561202f5761175c90611e026120048561294d565b600b600052917f0175b7a638427703f0dbe7bb9bbf987a2551717b34e79f33b5b1008d1fa01db80190565b5061175c612042611e4e611e43436129b6565b61207561204e8561294d565b612065612059611b6e565b63ffffffff9094168452565b6001600160e01b03166020830152565b611ee0565b5163ffffffff16905063ffffffff612094611e43436129b6565b91161438611fee565b600b6000526120cd7f0175b7a638427703f0dbe7bb9bbf987a2551717b34e79f33b5b1008d1fa01db88201611b7b565b611fc3565b90918154918215928360001461216e576120ea611b6e565b60008152600060208201525b602081015161211890612111906001600160e01b0316611dba565b9687612e9b565b9415908161214b575b501561213757611e0261175c92611df08661294d565b5061175c90611e53611e4e611e43436129b6565b5163ffffffff16905063ffffffff612165611e43436129b6565b91161438612121565b612186611ecc60001983018460005260206000200190565b6120f6565b600d9081549182156122565760009081935b8085106122005750505081151590816121c0575b50156102ad576102ad90611be9565b90506121f86121ce83611be9565b600d6000527fd7b6990105719101dabeb77144f2a3385c8033acd3af97e9423a695e81ad1eb50190565b5414386121b1565b61220a81866127e6565b908183855285817fd7b6990105719101dabeb77144f2a3385c8033acd3af97e9423a695e81ad1eb501541160001461224357505061219d565b90955061225091506115ca565b9361219d565b505050600090565b805491821561225657600080935b8085106122b4575050821515918261228f575b5050156102ad576102ad90611be9565b6122ab91925061229e84611be9565b9060005260206000200190565b5414388061227f565b6122be81866127e6565b90818584528481602086200154116000146122da57505061226c565b9095506122e791506115ca565b9361226c565b916102ad93916122fc93612444565b919091612324565b6005111561230e57565b634e487b7160e01b600052602160045260246000fd5b61232d81612304565b806123355750565b61233e81612304565b6001810361238b5760405162461bcd60e51b815260206004820152601860248201527f45434453413a20696e76616c6964207369676e617475726500000000000000006044820152606490fd5b61239481612304565b600281036123e15760405162461bcd60e51b815260206004820152601f60248201527f45434453413a20696e76616c6964207369676e6174757265206c656e677468006044820152606490fd5b806123ed600392612304565b146123f457565b60405162461bcd60e51b815260206004820152602260248201527f45434453413a20696e76616c6964207369676e6174757265202773272076616c604482015261756560f01b6064820152608490fd5b9291907f7fffffffffffffffffffffffffffffff5d576e7357a4501ddfe92f46681b20a083116124c75791608094939160ff602094604051948552168484015260408301526060820152600093849182805260015afa156124ba5781516001600160a01b038116156124b4579190565b50600190565b50604051903d90823e3d90fd5b50505050600090600390565b307f00000000000000000000000000000000000000000000000000000000000000006001600160a01b031614806125c4575b1561252e577f000000000000000000000000000000000000000000000000000000000000000090565b60405160208101907f8b73c3c69bb8fe3d512ecc4cf759cc79239f7b179b0ffacaa9a75d522b39400f82527f000000000000000000000000000000000000000000000000000000000000000060408201527f000000000000000000000000000000000000000000000000000000000000000060608201524660808201523060a082015260a081526125be81611576565b51902090565b507f00000000000000000000000000000000000000000000000000000000000000004614612505565b6042906125f86124d3565b906040519161190160f01b8352600283015260228201522090565b60ff81146126515760ff811690601f821161263f576040519161263583611539565b8252602082015290565b604051632cd44ac360e21b8152600490fd5b50604051600554816000612664836114e9565b808352926001908181169081156126ea575060011461268b575b506102ad92500382611592565b6005600090815291507f036b6384b5eca791c62761152d0c79bb0604c104a5fb6f4eb0703f3154bb3db05b8483106126cf57506102ad93505081016020013861267e565b819350908160209254838589010152019101909184926126b6565b9050602092506102ad94915060ff191682840152151560051b8201013861267e565b60ff811461272e5760ff811690601f821161263f576040519161263583611539565b50604051600654816000612741836114e9565b808352926001908181169081156126ea575060011461276757506102ad92500382611592565b6006600090815291507ff652222313e28459528d920b65115c16c04f3efc82aaedc97be59f3f377c0d3f5b8483106127ab57506102ad93505081016020013861267e565b81935090816020925483858901015201910190918492612792565b81156127d0570490565b634e487b7160e01b600052601260045260246000fd5b90808216911860011c81018091116104df5790565b801561293557806128ce6128c76128bd6128b36128a961289f61289561288b60016102ad9a6000908b60801c80612929575b508060401c8061291c575b508060201c8061290f575b508060101c80612902575b508060081c806128f5575b508060041c806128e8575b508060021c806128db575b50821c6128d4575b811c1b612884818b6127c6565b0160011c90565b612884818a6127c6565b61288481896127c6565b61288481886127c6565b61288481876127c6565b61288481866127c6565b61288481856127c6565b80926127c6565b9061293b565b8101612877565b600291509101903861286f565b6004915091019038612864565b6008915091019038612859565b601091509101903861284e565b6020915091019038612843565b6040915091019038612838565b9150506080903861282d565b50600090565b9080821015612948575090565b905090565b6001600160e01b0390818111612961571690565b60405162461bcd60e51b815260206004820152602760248201527f53616665436173743a2076616c756520646f65736e27742066697420696e20326044820152663234206269747360c81b6064820152608490fd5b65ffffffffffff908181116129c9571690565b60405162461bcd60e51b815260206004820152602660248201527f53616665436173743a2076616c756520646f65736e27742066697420696e203460448201526538206269747360d01b6064820152608490fd5b63ffffffff90818111612a2e571690565b60405162461bcd60e51b815260206004820152602660248201527f53616665436173743a2076616c756520646f65736e27742066697420696e203360448201526532206269747360d01b6064820152608490fd5b15612a8957565b60405162461bcd60e51b815260206004820152601860248201527f45786365656473206d61782077616c6c6574206c696d697400000000000000006044820152606490fd5b6001600160a01b038116612b66575060008080526020527fad3228b676f7d3cd4284a5443f17f1962b36e491b30a40b2405849e597ba5fb554600f547f13649b2456f1b42fef0f0040b3aaeabcd21a76a0f3f5defd4f583839455116e8919080612b3784612d94565b10612b48575b50505061175c612cb4565b82612b58600192612b5e95612d32565b01612d32565b388080612b3d565b612b6f90612c6d565b61175c612cb4565b9091906001600160a01b03808216612c4257612b9284612c6d565b612b9a612cb4565b831615159081612c13575b81612bef575b50612bb4575050565b612be8690a2a07efde66169c000091612be261175c9460018060a01b03166000526000602052604060002090565b546115d8565b1115612a82565b6001600160a01b031660009081526011602052604090205460ff1615905038612bab565b9050612c3c60ff612c368560018060a01b03166000526011602052604060002090565b54161590565b90612ba5565b838116612c5f57612c5282612c6d565b612c5a612cb4565b612b9a565b612c6882612c6d565b612c5a845b60018060a01b0316600052600c60205260406000206000602052604060002054600f5480612c9a84612d94565b10612ca457505050565b82612b5860019261175c95612d32565b600254600f549081612cc4612d67565b10612ccd575050565b600d54600160401b908181101561155557806001612cee9201600d55611a5f565b81549060031b906000198096831b921b1916179055600e549081101561155557806001612d1e9201600e55611a12565b909283549160031b92831b921b1916179055565b8054600160401b81101561155557612d4f91600182018155611a96565b819291549060031b91821b91600019901b1916179055565b600d5480612d755750600090565b60001981019081116104df57612d8a90611a5f565b90549060031b1c90565b805480612da2575050600090565b60001981019081116104df57612d8a91611a96565b6001600160a01b039081166000908152600960205260408120549080527fec8156718a8372b1db44bb411437d0870f3e3790d4a08526d024ce1b0b668f6b5461175c93929081169116611cc5565b6001600160a01b0390811660009081526009602052604080822054938316825290205461175c93929082169116611cc5565b15612e3e57565b60405162461bcd60e51b815260206004820152602260248201527f45524332303a206275726e20616d6f756e7420657863656564732062616c616e604482015261636560f01b6064820152608490fd5b9081039081116104df5790565b9081018091116104df579056fea2646970667358221220c469f2c9c05a8fbddcb9932eca0d366c7bc6b900bf3e65fc0e59365345e583b164736f6c63430008140033dec2bacdd2f05b59de34da9b523dff8be42e5e38e818c82fdb0bae774387a724",
  "linkReferences": {},
  "deployedLinkReferences": {}
}